{
	"data": {
		"bytecode": {
			"linkReferences": {},
			"object": "608060405260fa6003556101f46005553480156200001b575f80fd5b506040516200202f3803806200202f8339810160408190526200003e91620000fd565b60015f558181816001600160a01b0381166200007357604051631e4fbdf760e01b81525f600482015260240160405180910390fd5b6200007e81620000ac565b50600280546001600160a01b0319166001600160a01b03939093169290921790915560035550620001369050565b600180546001600160a01b038381166001600160a01b0319831681179093556040519116919082907f8be0079c531659141344cd1fd0a4f28419497f9722a3daafe3b4186f6b6457e0905f90a35050565b5f80604083850312156200010f575f80fd5b82516001600160a01b038116811462000126575f80fd5b6020939093015192949293505050565b611eeb80620001445f395ff3fe608060405234801561000f575f80fd5b5060043610610141575f3560e01c8063adba8891116100c3578063d6febde811610088578063ef706adf11610063578063ef706adf146103d2578063f23a6e61146103e5578063f2fde38b14610404575f80fd5b8063d6febde814610399578063dce97c51146103ac578063e521cb92146103bf575f80fd5b8063adba88911461031b578063bc063e1a1461032e578063bc197c8114610345578063c402b9651461037d578063d6e6eb9f14610390575f80fd5b8063715018a611610109578063715018a61461028a57806381257bd5146102925780638a72ea6a146102a55780638da5cb5b146102f7578063a498342114610308575f80fd5b806301ffc9a7146101455780630b0c14931461016d5780631628e0f5146101fe57806343add2e61461021357806364df049e1461025f575b5f80fd5b610158610153366004611ab4565b610417565b60405190151581526020015b60405180910390f35b6101bf61017b366004611adb565b60096020525f90815260409020805460018201546002830154600384015460048501546005909501546001600160a01b039485169593851694929391929091169086565b604080516001600160a01b03978816815295871660208701528501939093526060840191909152909216608082015260a081019190915260c001610164565b61021161020c366004611adb565b61044d565b005b610242610221366004611b0d565b60066020525f9081526040902080546001909101546001600160a01b031682565b604080519283526001600160a01b03909116602083015201610164565b600254610272906001600160a01b031681565b6040516001600160a01b039091168152602001610164565b610211610631565b6102116102a0366004611b26565b610644565b6101bf6102b3366004611adb565b600a6020525f90815260409020805460018201546002830154600384015460048501546005909501546001600160a01b039485169593851694929391929091169086565b6001546001600160a01b0316610272565b610211610316366004611adb565b61098a565b610211610329366004611b46565b6109d3565b61033760055481565b604051908152602001610164565b610364610353366004611cbe565b63bc197c8160e01b95945050505050565b6040516001600160e01b03199091168152602001610164565b61021161038b366004611b46565b610d32565b61033760035481565b6102116103a7366004611b26565b610fdf565b6102116103ba366004611d61565b611301565b6102116103cd366004611b0d565b611460565b6102116103e0366004611adb565b6114ee565b6103646103f3366004611d9a565b63f23a6e6160e01b95945050505050565b610211610412366004611b0d565b61166c565b5f6001600160e01b03198216630271189760e51b148061044757506301ffc9a760e01b6001600160e01b03198316145b92915050565b6104556116a6565b5f818152600960205260409020546001600160a01b031633146104bf5760405162461bcd60e51b815260206004820152601d60248201527f455243313135354e46544d61726b65743a206f6e6c792073656c6c657200000060448201526064015b60405180910390fd5b5f81815260096020908152604091829020825160c08101845281546001600160a01b03908116808352600184015482169483018590526002840154838701819052600385015460608501819052600480870154909416608086015260059095015460a08501529551637921219560e11b8152929563f242432a94610577943094016001600160a01b0394851681529290931660208301526040820152606081019190915260a0608082018190525f9082015260c00190565b5f604051808303815f87803b15801561058e575f80fd5b505af11580156105a0573d5f803e3d5ffd5b5050505f8381526009602052604080822080546001600160a01b03199081168255600182018054821690556002820184905560038201849055600482018054909116905560050191909155517fee9865d272bb141ccdcb40b291b1d8ff68d3b73072a6bc571508a36403698ab5915061061c9084815260200190565b60405180910390a15061062e60015f55565b50565b6106396116fd565b6106425f61172a565b565b61064c6116a6565b333b156106925760405162461bcd60e51b815260206004820152601460248201527310dbdb9d1c9858dd081b9bdd08185b1b1bddd95960621b60448201526064016104b6565b3332146106e15760405162461bcd60e51b815260206004820152601a60248201527f50726f787920636f6e7472616374206e6f7420616c6c6f77656400000000000060448201526064016104b6565b5f811161074d5760405162461bcd60e51b815260206004820152603460248201527f455243313135354e46544d61726b65743a207175616e74697479206d7573742060448201527362652067726561746572207468616e207a65726f60601b60648201526084016104b6565b5f828152600a60205260409020600301548111156107bf5760405162461bcd60e51b815260206004820152602960248201527f455243313135354e46544d61726b65743a207175616e74697479206973206e6f6044820152681d08195b9bdd59da1d60ba1b60648201526084016104b6565b5f828152600a6020526040902060038101546107db908361177b565b600382015560018101546001600160a01b031663f242432a338354600285015460405160e085901b6001600160e01b03191681526001600160a01b03938416600482015292909116602483015260448201526064810185905260a060848201525f60a482015260c4015f604051808303815f87803b15801561085b575f80fd5b505af115801561086d573d5f803e3d5ffd5b50505060058201545f9150610882908461178d565b600183015460048401549192505f916108a8916001600160a01b03908116911684611798565b90505f6108b5838361177b565b90506108d03360048601546001600160a01b03169083611883565b83600301545f03610920575f868152600a6020526040812080546001600160a01b031990811682556001820180548216905560028201839055600382018390556004820180549091169055600501555b7fd324686cbfeb2a923bd1b64bcc8f1ab0f8add322a66e8f92d24fa51d80c99a1786335b604080519283526001600160a01b0390911660208301528101879052606081018590526080810183905260a00160405180910390a15050505061098660015f55565b5050565b6109926116fd565b6005548111156109ce5760405162461bcd60e51b81526020600482015260076024820152666d61785f66656560c81b60448201526064016104b6565b600355565b6109db6116a6565b333b15610a215760405162461bcd60e51b815260206004820152601460248201527310dbdb9d1c9858dd081b9bdd08185b1b1bddd95960621b60448201526064016104b6565b333214610a705760405162461bcd60e51b815260206004820152601a60248201527f50726f787920636f6e7472616374206e6f7420616c6c6f77656400000000000060448201526064016104b6565b5f8311610add5760405162461bcd60e51b815260206004820152603560248201527f455243313135354e46544d61726b65743a205f7175616e74697479206d7573746044820152742062652067726561746572207468616e207a65726f60581b60648201526084016104b6565b5f8111610b525760405162461bcd60e51b815260206004820152603960248201527f455243313135354e46544d61726b65743a205f7072696365506572556e69742060448201527f6d7573742062652067726561746572207468616e207a65726f0000000000000060648201526084016104b6565b610b60600780546001019055565b6001600160a01b03851663f242432a336040516001600160e01b031960e084901b1681526001600160a01b039091166004820152306024820152604481018790526064810186905260a060848201525f60a482015260c4015f604051808303815f87803b158015610bcf575f80fd5b505af1158015610be1573d5f803e3d5ffd5b505050506040518060c00160405280610bf73390565b6001600160a01b03168152602001866001600160a01b03168152602001858152602001848152602001836001600160a01b031681526020018281525060095f610c3f60075490565b815260208082019290925260409081015f20835181546001600160a01b03199081166001600160a01b0392831617835593850151600183018054861691831691909117905591840151600282015560608401516003820155608084015160048201805490941692169190911790915560a0909101516005909101556007547f29d76092d54d5025cd6ec35f3a84cc5ea4cfb96def8bf2b0159970dae93375a5905b604080519182523360208301526001600160a01b03888116838301526060830188905260808301879052851660a083015260c08201849052519081900360e00190a1610d2b60015f55565b5050505050565b610d3a6116a6565b333b15610d805760405162461bcd60e51b815260206004820152601460248201527310dbdb9d1c9858dd081b9bdd08185b1b1bddd95960621b60448201526064016104b6565b333214610dcf5760405162461bcd60e51b815260206004820152601a60248201527f50726f787920636f6e7472616374206e6f7420616c6c6f77656400000000000060448201526064016104b6565b5f8311610e3c5760405162461bcd60e51b815260206004820152603560248201527f455243313135354e46544d61726b65743a205f7175616e74697479206d7573746044820152742062652067726561746572207468616e207a65726f60581b60648201526084016104b6565b5f8111610eb15760405162461bcd60e51b815260206004820152603960248201527f455243313135354e46544d61726b65743a205f7072696365506572556e69742060448201527f6d7573742062652067726561746572207468616e207a65726f0000000000000060648201526084016104b6565b610ebf600880546001019055565b610ee03330610ece848761178d565b6001600160a01b0386169291906118fc565b6040518060c00160405280610ef23390565b6001600160a01b03168152602001866001600160a01b03168152602001858152602001848152602001836001600160a01b0316815260200182815250600a5f610f3a60085490565b815260208082019290925260409081015f20835181546001600160a01b03199081166001600160a01b0392831617835593850151600183018054861691831691909117905591840151600282015560608401516003820155608084015160048201805490941692169190911790915560a0909101516005909101556008547f3d7599a9ddfe5ea5b767a0cf245ac3473a20156930cf6c04c65daecfa236fb9790610ce0565b610fe76116a6565b333b1561102d5760405162461bcd60e51b815260206004820152601460248201527310dbdb9d1c9858dd081b9bdd08185b1b1bddd95960621b60448201526064016104b6565b33321461107c5760405162461bcd60e51b815260206004820152601a60248201527f50726f787920636f6e7472616374206e6f7420616c6c6f77656400000000000060448201526064016104b6565b5f81116110e85760405162461bcd60e51b815260206004820152603460248201527f455243313135354e46544d61726b65743a207175616e74697479206d7573742060448201527362652067726561746572207468616e207a65726f60601b60648201526084016104b6565b5f8281526009602052604090206003015481111561115a5760405162461bcd60e51b815260206004820152602960248201527f455243313135354e46544d61726b65743a207175616e74697479206973206e6f6044820152681d08195b9bdd59da1d60ba1b60648201526084016104b6565b5f8281526009602052604090206003810154611176908361177b565b600382015560058101545f9061118c908461178d565b90506111a83360048401546001600160a01b03169030846118fc565b600182015460048301545f916111cb916001600160a01b03918216911684611798565b90505f6111d8838361177b565b845460048601549192506111f9916001600160a01b03908116911683611883565b60018401546001600160a01b031663f242432a303360028801546040516001600160e01b031960e086901b1681526001600160a01b03938416600482015292909116602483015260448201526064810188905260a060848201525f60a482015260c4015f604051808303815f87803b158015611273575f80fd5b505af1158015611285573d5f803e3d5ffd5b5050505083600301545f036112d9575f86815260096020526040812080546001600160a01b031990811682556001820180548216905560028201839055600382018390556004820180549091169055600501555b7f7280bdf45dbd84499327763e7e91b31324c8fc5e8d556813089f71c9a8d91f5c8633610944565b6113096116fd565b6005548111156113455760405162461bcd60e51b81526020600482015260076024820152666d61785f66656560c81b60448201526064016104b6565b6001600160a01b03831661138a5760405162461bcd60e51b815260206004820152600c60248201526b7a65726f206164647265737360a01b60448201526064016104b6565b6001600160a01b0382166113cf5760405162461bcd60e51b815260206004820152600c60248201526b7a65726f206164647265737360a01b60448201526064016104b6565b6040805180820182528281526001600160a01b0384811660208084019182528783165f908152600682528590209351808555915160019094018054949093166001600160a01b031990941684179092558351338152918201528083019190915290517fff46874afead5e80822ecf46dda060808cd504220df8a1b17acbdf840e1545419181900360600190a1505050565b6114686116fd565b6001600160a01b0381166114cc5760405162461bcd60e51b815260206004820152602560248201527f4572633732314e46544665654469737472696275746f723a207a65726f206164604482015264647265737360d81b60648201526084016104b6565b600280546001600160a01b0319166001600160a01b0392909216919091179055565b6114f66116a6565b5f818152600a60205260409020546001600160a01b031633146115665760405162461bcd60e51b815260206004820152602260248201527f455243313135354e46544d61726b65743a206f6e6c79206f66666572206f776e60448201526132b960f11b60648201526084016104b6565b5f818152600a6020908152604091829020825160c08101845281546001600160a01b0390811680835260018401548216948301949094526002830154948201949094526003820154606082018190526004830154909416608082015260059091015460a0820181905290926115f492916115df9161178d565b60808401516001600160a01b03169190611883565b5f828152600a602052604080822080546001600160a01b03199081168255600182018054821690556002820184905560038201849055600482018054909116905560050191909155517f794d5735ab1eafdbd50c755c48bf80523551293f59a2b254b54f125017bc4e949061061c9084815260200190565b6116746116fd565b6001600160a01b03811661169d57604051631e4fbdf760e01b81525f60048201526024016104b6565b61062e8161172a565b60025f54036116f75760405162461bcd60e51b815260206004820152601f60248201527f5265656e7472616e637947756172643a207265656e7472616e742063616c6c0060448201526064016104b6565b60025f55565b6001546001600160a01b031633146106425760405163118cdaa760e01b81523360048201526024016104b6565b600180546001600160a01b038381166001600160a01b0319831681179093556040519116919082907f8be0079c531659141344cd1fd0a4f28419497f9722a3daafe3b4186f6b6457e0905f90a35050565b5f6117868284611e0e565b9392505050565b5f6117868284611e21565b6002545f90819081906001600160a01b0316156117fa576117d06127106117ca6003548761178d90919063ffffffff16565b9061193b565b6002549092506117ed906001600160a01b03878116911684611883565b6117f78183611946565b90505b6001600160a01b038087165f9081526006602090815260409182902082518084019093528054835260010154909216918101829052901561187957805161184a90612710906117ca90889061178d565b9250821561186c57602081015161186c906001600160a01b0388169085611883565b6118768284611946565b91505b5095945050505050565b6040516001600160a01b038381166024830152604482018390526118f791859182169063a9059cbb906064015b604051602081830303815290604052915060e01b6020820180517bffffffffffffffffffffffffffffffffffffffffffffffffffffffff8381831617835250505050611951565b505050565b6040516001600160a01b0384811660248301528381166044830152606482018390526119359186918216906323b872dd906084016118b0565b50505050565b5f6117868284611e38565b5f6117868284611e57565b5f6119656001600160a01b038416836119b2565b905080515f141580156119895750808060200190518101906119879190611e6a565b155b156118f757604051635274afe760e01b81526001600160a01b03841660048201526024016104b6565b606061178683835f845f80856001600160a01b031684866040516119d69190611e89565b5f6040518083038185875af1925050503d805f8114611a10576040519150601f19603f3d011682016040523d82523d5f602084013e611a15565b606091505b5091509150611a25868383611a2f565b9695505050505050565b606082611a4457611a3f82611a8b565b611786565b8151158015611a5b57506001600160a01b0384163b155b15611a8457604051639996b31560e01b81526001600160a01b03851660048201526024016104b6565b5080611786565b805115611a9b5780518082602001fd5b604051630a12f52160e11b815260040160405180910390fd5b5f60208284031215611ac4575f80fd5b81356001600160e01b031981168114611786575f80fd5b5f60208284031215611aeb575f80fd5b5035919050565b80356001600160a01b0381168114611b08575f80fd5b919050565b5f60208284031215611b1d575f80fd5b61178682611af2565b5f8060408385031215611b37575f80fd5b50508035926020909101359150565b5f805f805f60a08688031215611b5a575f80fd5b611b6386611af2565b94506020860135935060408601359250611b7f60608701611af2565b949793965091946080013592915050565b634e487b7160e01b5f52604160045260245ffd5b604051601f8201601f1916810167ffffffffffffffff81118282101715611bcd57611bcd611b90565b604052919050565b5f82601f830112611be4575f80fd5b8135602067ffffffffffffffff821115611c0057611c00611b90565b8160051b611c0f828201611ba4565b9283528481018201928281019087851115611c28575f80fd5b83870192505b84831015611c4757823582529183019190830190611c2e565b979650505050505050565b5f82601f830112611c61575f80fd5b813567ffffffffffffffff811115611c7b57611c7b611b90565b611c8e601f8201601f1916602001611ba4565b818152846020838601011115611ca2575f80fd5b816020850160208301375f918101602001919091529392505050565b5f805f805f60a08688031215611cd2575f80fd5b611cdb86611af2565b9450611ce960208701611af2565b9350604086013567ffffffffffffffff80821115611d05575f80fd5b611d1189838a01611bd5565b94506060880135915080821115611d26575f80fd5b611d3289838a01611bd5565b93506080880135915080821115611d47575f80fd5b50611d5488828901611c52565b9150509295509295909350565b5f805f60608486031215611d73575f80fd5b611d7c84611af2565b9250611d8a60208501611af2565b9150604084013590509250925092565b5f805f805f60a08688031215611dae575f80fd5b611db786611af2565b9450611dc560208701611af2565b93506040860135925060608601359150608086013567ffffffffffffffff811115611dee575f80fd5b611d5488828901611c52565b634e487b7160e01b5f52601160045260245ffd5b8181038181111561044757610447611dfa565b808202811582820484141761044757610447611dfa565b5f82611e5257634e487b7160e01b5f52601260045260245ffd5b500490565b8082018082111561044757610447611dfa565b5f60208284031215611e7a575f80fd5b81518015158114611786575f80fd5b5f82515f5b81811015611ea85760208186018101518583015201611e8e565b505f92019182525091905056fea2646970667358221220fd2b094a2e3ae62dfc32ddf243d66da0fed68af7383c63e57ae9002f649185de64736f6c63430008150033",
			"opcodes": "PUSH1 0x80 PUSH1 0x40 MSTORE PUSH1 0xFA PUSH1 0x3 SSTORE PUSH2 0x1F4 PUSH1 0x5 SSTORE CALLVALUE DUP1 ISZERO PUSH3 0x1B JUMPI PUSH0 DUP1 REVERT JUMPDEST POP PUSH1 0x40 MLOAD PUSH3 0x202F CODESIZE SUB DUP1 PUSH3 0x202F DUP4 CODECOPY DUP2 ADD PUSH1 0x40 DUP2 SWAP1 MSTORE PUSH3 0x3E SWAP2 PUSH3 0xFD JUMP JUMPDEST PUSH1 0x1 PUSH0 SSTORE DUP2 DUP2 DUP2 PUSH1 0x1 PUSH1 0x1 PUSH1 0xA0 SHL SUB DUP2 AND PUSH3 0x73 JUMPI PUSH1 0x40 MLOAD PUSH4 0x1E4FBDF7 PUSH1 0xE0 SHL DUP2 MSTORE PUSH0 PUSH1 0x4 DUP3 ADD MSTORE PUSH1 0x24 ADD PUSH1 0x40 MLOAD DUP1 SWAP2 SUB SWAP1 REVERT JUMPDEST PUSH3 0x7E DUP2 PUSH3 0xAC JUMP JUMPDEST POP PUSH1 0x2 DUP1 SLOAD PUSH1 0x1 PUSH1 0x1 PUSH1 0xA0 SHL SUB NOT AND PUSH1 0x1 PUSH1 0x1 PUSH1 0xA0 SHL SUB SWAP4 SWAP1 SWAP4 AND SWAP3 SWAP1 SWAP3 OR SWAP1 SWAP2 SSTORE PUSH1 0x3 SSTORE POP PUSH3 0x136 SWAP1 POP JUMP JUMPDEST PUSH1 0x1 DUP1 SLOAD PUSH1 0x1 PUSH1 0x1 PUSH1 0xA0 SHL SUB DUP4 DUP2 AND PUSH1 0x1 PUSH1 0x1 PUSH1 0xA0 SHL SUB NOT DUP4 AND DUP2 OR SWAP1 SWAP4 SSTORE PUSH1 0x40 MLOAD SWAP2 AND SWAP2 SWAP1 DUP3 SWAP1 PUSH32 0x8BE0079C531659141344CD1FD0A4F28419497F9722A3DAAFE3B4186F6B6457E0 SWAP1 PUSH0 SWAP1 LOG3 POP POP JUMP JUMPDEST PUSH0 DUP1 PUSH1 0x40 DUP4 DUP6 SUB SLT ISZERO PUSH3 0x10F JUMPI PUSH0 DUP1 REVERT JUMPDEST DUP3 MLOAD PUSH1 0x1 PUSH1 0x1 PUSH1 0xA0 SHL SUB DUP2 AND DUP2 EQ PUSH3 0x126 JUMPI PUSH0 DUP1 REVERT JUMPDEST PUSH1 0x20 SWAP4 SWAP1 SWAP4 ADD MLOAD SWAP3 SWAP5 SWAP3 SWAP4 POP POP POP JUMP JUMPDEST PUSH2 0x1EEB DUP1 PUSH3 0x144 PUSH0 CODECOPY PUSH0 RETURN INVALID PUSH1 0x80 PUSH1 0x40 MSTORE CALLVALUE DUP1 ISZERO PUSH2 0xF JUMPI PUSH0 DUP1 REVERT JUMPDEST POP PUSH1 0x4 CALLDATASIZE LT PUSH2 0x141 JUMPI PUSH0 CALLDATALOAD PUSH1 0xE0 SHR DUP1 PUSH4 0xADBA8891 GT PUSH2 0xC3 JUMPI DUP1 PUSH4 0xD6FEBDE8 GT PUSH2 0x88 JUMPI DUP1 PUSH4 0xEF706ADF GT PUSH2 0x63 JUMPI DUP1 PUSH4 0xEF706ADF EQ PUSH2 0x3D2 JUMPI DUP1 PUSH4 0xF23A6E61 EQ PUSH2 0x3E5 JUMPI DUP1 PUSH4 0xF2FDE38B EQ PUSH2 0x404 JUMPI PUSH0 DUP1 REVERT JUMPDEST DUP1 PUSH4 0xD6FEBDE8 EQ PUSH2 0x399 JUMPI DUP1 PUSH4 0xDCE97C51 EQ PUSH2 0x3AC JUMPI DUP1 PUSH4 0xE521CB92 EQ PUSH2 0x3BF JUMPI PUSH0 DUP1 REVERT JUMPDEST DUP1 PUSH4 0xADBA8891 EQ PUSH2 0x31B JUMPI DUP1 PUSH4 0xBC063E1A EQ PUSH2 0x32E JUMPI DUP1 PUSH4 0xBC197C81 EQ PUSH2 0x345 JUMPI DUP1 PUSH4 0xC402B965 EQ PUSH2 0x37D JUMPI DUP1 PUSH4 0xD6E6EB9F EQ PUSH2 0x390 JUMPI PUSH0 DUP1 REVERT JUMPDEST DUP1 PUSH4 0x715018A6 GT PUSH2 0x109 JUMPI DUP1 PUSH4 0x715018A6 EQ PUSH2 0x28A JUMPI DUP1 PUSH4 0x81257BD5 EQ PUSH2 0x292 JUMPI DUP1 PUSH4 0x8A72EA6A EQ PUSH2 0x2A5 JUMPI DUP1 PUSH4 0x8DA5CB5B EQ PUSH2 0x2F7 JUMPI DUP1 PUSH4 0xA4983421 EQ PUSH2 0x308 JUMPI PUSH0 DUP1 REVERT JUMPDEST DUP1 PUSH4 0x1FFC9A7 EQ PUSH2 0x145 JUMPI DUP1 PUSH4 0xB0C1493 EQ PUSH2 0x16D JUMPI DUP1 PUSH4 0x1628E0F5 EQ PUSH2 0x1FE JUMPI DUP1 PUSH4 0x43ADD2E6 EQ PUSH2 0x213 JUMPI DUP1 PUSH4 0x64DF049E EQ PUSH2 0x25F JUMPI JUMPDEST PUSH0 DUP1 REVERT JUMPDEST PUSH2 0x158 PUSH2 0x153 CALLDATASIZE PUSH1 0x4 PUSH2 0x1AB4 JUMP JUMPDEST PUSH2 0x417 JUMP JUMPDEST PUSH1 0x40 MLOAD SWAP1 ISZERO ISZERO DUP2 MSTORE PUSH1 0x20 ADD JUMPDEST PUSH1 0x40 MLOAD DUP1 SWAP2 SUB SWAP1 RETURN JUMPDEST PUSH2 0x1BF PUSH2 0x17B CALLDATASIZE PUSH1 0x4 PUSH2 0x1ADB JUMP JUMPDEST PUSH1 0x9 PUSH1 0x20 MSTORE PUSH0 SWAP1 DUP2 MSTORE PUSH1 0x40 SWAP1 KECCAK256 DUP1 SLOAD PUSH1 0x1 DUP3 ADD SLOAD PUSH1 0x2 DUP4 ADD SLOAD PUSH1 0x3 DUP5 ADD SLOAD PUSH1 0x4 DUP6 ADD SLOAD PUSH1 0x5 SWAP1 SWAP6 ADD SLOAD PUSH1 0x1 PUSH1 0x1 PUSH1 0xA0 SHL SUB SWAP5 DUP6 AND SWAP6 SWAP4 DUP6 AND SWAP5 SWAP3 SWAP4 SWAP2 SWAP3 SWAP1 SWAP2 AND SWAP1 DUP7 JUMP JUMPDEST PUSH1 0x40 DUP1 MLOAD PUSH1 0x1 PUSH1 0x1 PUSH1 0xA0 SHL SUB SWAP8 DUP9 AND DUP2 MSTORE SWAP6 DUP8 AND PUSH1 0x20 DUP8 ADD MSTORE DUP6 ADD SWAP4 SWAP1 SWAP4 MSTORE PUSH1 0x60 DUP5 ADD SWAP2 SWAP1 SWAP2 MSTORE SWAP1 SWAP3 AND PUSH1 0x80 DUP3 ADD MSTORE PUSH1 0xA0 DUP2 ADD SWAP2 SWAP1 SWAP2 MSTORE PUSH1 0xC0 ADD PUSH2 0x164 JUMP JUMPDEST PUSH2 0x211 PUSH2 0x20C CALLDATASIZE PUSH1 0x4 PUSH2 0x1ADB JUMP JUMPDEST PUSH2 0x44D JUMP JUMPDEST STOP JUMPDEST PUSH2 0x242 PUSH2 0x221 CALLDATASIZE PUSH1 0x4 PUSH2 0x1B0D JUMP JUMPDEST PUSH1 0x6 PUSH1 0x20 MSTORE PUSH0 SWAP1 DUP2 MSTORE PUSH1 0x40 SWAP1 KECCAK256 DUP1 SLOAD PUSH1 0x1 SWAP1 SWAP2 ADD SLOAD PUSH1 0x1 PUSH1 0x1 PUSH1 0xA0 SHL SUB AND DUP3 JUMP JUMPDEST PUSH1 0x40 DUP1 MLOAD SWAP3 DUP4 MSTORE PUSH1 0x1 PUSH1 0x1 PUSH1 0xA0 SHL SUB SWAP1 SWAP2 AND PUSH1 0x20 DUP4 ADD MSTORE ADD PUSH2 0x164 JUMP JUMPDEST PUSH1 0x2 SLOAD PUSH2 0x272 SWAP1 PUSH1 0x1 PUSH1 0x1 PUSH1 0xA0 SHL SUB AND DUP2 JUMP JUMPDEST PUSH1 0x40 MLOAD PUSH1 0x1 PUSH1 0x1 PUSH1 0xA0 SHL SUB SWAP1 SWAP2 AND DUP2 MSTORE PUSH1 0x20 ADD PUSH2 0x164 JUMP JUMPDEST PUSH2 0x211 PUSH2 0x631 JUMP JUMPDEST PUSH2 0x211 PUSH2 0x2A0 CALLDATASIZE PUSH1 0x4 PUSH2 0x1B26 JUMP JUMPDEST PUSH2 0x644 JUMP JUMPDEST PUSH2 0x1BF PUSH2 0x2B3 CALLDATASIZE PUSH1 0x4 PUSH2 0x1ADB JUMP JUMPDEST PUSH1 0xA PUSH1 0x20 MSTORE PUSH0 SWAP1 DUP2 MSTORE PUSH1 0x40 SWAP1 KECCAK256 DUP1 SLOAD PUSH1 0x1 DUP3 ADD SLOAD PUSH1 0x2 DUP4 ADD SLOAD PUSH1 0x3 DUP5 ADD SLOAD PUSH1 0x4 DUP6 ADD SLOAD PUSH1 0x5 SWAP1 SWAP6 ADD SLOAD PUSH1 0x1 PUSH1 0x1 PUSH1 0xA0 SHL SUB SWAP5 DUP6 AND SWAP6 SWAP4 DUP6 AND SWAP5 SWAP3 SWAP4 SWAP2 SWAP3 SWAP1 SWAP2 AND SWAP1 DUP7 JUMP JUMPDEST PUSH1 0x1 SLOAD PUSH1 0x1 PUSH1 0x1 PUSH1 0xA0 SHL SUB AND PUSH2 0x272 JUMP JUMPDEST PUSH2 0x211 PUSH2 0x316 CALLDATASIZE PUSH1 0x4 PUSH2 0x1ADB JUMP JUMPDEST PUSH2 0x98A JUMP JUMPDEST PUSH2 0x211 PUSH2 0x329 CALLDATASIZE PUSH1 0x4 PUSH2 0x1B46 JUMP JUMPDEST PUSH2 0x9D3 JUMP JUMPDEST PUSH2 0x337 PUSH1 0x5 SLOAD DUP2 JUMP JUMPDEST PUSH1 0x40 MLOAD SWAP1 DUP2 MSTORE PUSH1 0x20 ADD PUSH2 0x164 JUMP JUMPDEST PUSH2 0x364 PUSH2 0x353 CALLDATASIZE PUSH1 0x4 PUSH2 0x1CBE JUMP JUMPDEST PUSH4 0xBC197C81 PUSH1 0xE0 SHL SWAP6 SWAP5 POP POP POP POP POP JUMP JUMPDEST PUSH1 0x40 MLOAD PUSH1 0x1 PUSH1 0x1 PUSH1 0xE0 SHL SUB NOT SWAP1 SWAP2 AND DUP2 MSTORE PUSH1 0x20 ADD PUSH2 0x164 JUMP JUMPDEST PUSH2 0x211 PUSH2 0x38B CALLDATASIZE PUSH1 0x4 PUSH2 0x1B46 JUMP JUMPDEST PUSH2 0xD32 JUMP JUMPDEST PUSH2 0x337 PUSH1 0x3 SLOAD DUP2 JUMP JUMPDEST PUSH2 0x211 PUSH2 0x3A7 CALLDATASIZE PUSH1 0x4 PUSH2 0x1B26 JUMP JUMPDEST PUSH2 0xFDF JUMP JUMPDEST PUSH2 0x211 PUSH2 0x3BA CALLDATASIZE PUSH1 0x4 PUSH2 0x1D61 JUMP JUMPDEST PUSH2 0x1301 JUMP JUMPDEST PUSH2 0x211 PUSH2 0x3CD CALLDATASIZE PUSH1 0x4 PUSH2 0x1B0D JUMP JUMPDEST PUSH2 0x1460 JUMP JUMPDEST PUSH2 0x211 PUSH2 0x3E0 CALLDATASIZE PUSH1 0x4 PUSH2 0x1ADB JUMP JUMPDEST PUSH2 0x14EE JUMP JUMPDEST PUSH2 0x364 PUSH2 0x3F3 CALLDATASIZE PUSH1 0x4 PUSH2 0x1D9A JUMP JUMPDEST PUSH4 0xF23A6E61 PUSH1 0xE0 SHL SWAP6 SWAP5 POP POP POP POP POP JUMP JUMPDEST PUSH2 0x211 PUSH2 0x412 CALLDATASIZE PUSH1 0x4 PUSH2 0x1B0D JUMP JUMPDEST PUSH2 0x166C JUMP JUMPDEST PUSH0 PUSH1 0x1 PUSH1 0x1 PUSH1 0xE0 SHL SUB NOT DUP3 AND PUSH4 0x2711897 PUSH1 0xE5 SHL EQ DUP1 PUSH2 0x447 JUMPI POP PUSH4 0x1FFC9A7 PUSH1 0xE0 SHL PUSH1 0x1 PUSH1 0x1 PUSH1 0xE0 SHL SUB NOT DUP4 AND EQ JUMPDEST SWAP3 SWAP2 POP POP JUMP JUMPDEST PUSH2 0x455 PUSH2 0x16A6 JUMP JUMPDEST PUSH0 DUP2 DUP2 MSTORE PUSH1 0x9 PUSH1 0x20 MSTORE PUSH1 0x40 SWAP1 KECCAK256 SLOAD PUSH1 0x1 PUSH1 0x1 PUSH1 0xA0 SHL SUB AND CALLER EQ PUSH2 0x4BF JUMPI PUSH1 0x40 MLOAD PUSH3 0x461BCD PUSH1 0xE5 SHL DUP2 MSTORE PUSH1 0x20 PUSH1 0x4 DUP3 ADD MSTORE PUSH1 0x1D PUSH1 0x24 DUP3 ADD MSTORE PUSH32 0x455243313135354E46544D61726B65743A206F6E6C792073656C6C6572000000 PUSH1 0x44 DUP3 ADD MSTORE PUSH1 0x64 ADD JUMPDEST PUSH1 0x40 MLOAD DUP1 SWAP2 SUB SWAP1 REVERT JUMPDEST PUSH0 DUP2 DUP2 MSTORE PUSH1 0x9 PUSH1 0x20 SWAP1 DUP2 MSTORE PUSH1 0x40 SWAP2 DUP3 SWAP1 KECCAK256 DUP3 MLOAD PUSH1 0xC0 DUP2 ADD DUP5 MSTORE DUP2 SLOAD PUSH1 0x1 PUSH1 0x1 PUSH1 0xA0 SHL SUB SWAP1 DUP2 AND DUP1 DUP4 MSTORE PUSH1 0x1 DUP5 ADD SLOAD DUP3 AND SWAP5 DUP4 ADD DUP6 SWAP1 MSTORE PUSH1 0x2 DUP5 ADD SLOAD DUP4 DUP8 ADD DUP2 SWAP1 MSTORE PUSH1 0x3 DUP6 ADD SLOAD PUSH1 0x60 DUP6 ADD DUP2 SWAP1 MSTORE PUSH1 0x4 DUP1 DUP8 ADD SLOAD SWAP1 SWAP5 AND PUSH1 0x80 DUP7 ADD MSTORE PUSH1 0x5 SWAP1 SWAP6 ADD SLOAD PUSH1 0xA0 DUP6 ADD MSTORE SWAP6 MLOAD PUSH4 0x79212195 PUSH1 0xE1 SHL DUP2 MSTORE SWAP3 SWAP6 PUSH4 0xF242432A SWAP5 PUSH2 0x577 SWAP5 ADDRESS SWAP5 ADD PUSH1 0x1 PUSH1 0x1 PUSH1 0xA0 SHL SUB SWAP5 DUP6 AND DUP2 MSTORE SWAP3 SWAP1 SWAP4 AND PUSH1 0x20 DUP4 ADD MSTORE PUSH1 0x40 DUP3 ADD MSTORE PUSH1 0x60 DUP2 ADD SWAP2 SWAP1 SWAP2 MSTORE PUSH1 0xA0 PUSH1 0x80 DUP3 ADD DUP2 SWAP1 MSTORE PUSH0 SWAP1 DUP3 ADD MSTORE PUSH1 0xC0 ADD SWAP1 JUMP JUMPDEST PUSH0 PUSH1 0x40 MLOAD DUP1 DUP4 SUB DUP2 PUSH0 DUP8 DUP1 EXTCODESIZE ISZERO DUP1 ISZERO PUSH2 0x58E JUMPI PUSH0 DUP1 REVERT JUMPDEST POP GAS CALL ISZERO DUP1 ISZERO PUSH2 0x5A0 JUMPI RETURNDATASIZE PUSH0 DUP1 RETURNDATACOPY RETURNDATASIZE PUSH0 REVERT JUMPDEST POP POP POP PUSH0 DUP4 DUP2 MSTORE PUSH1 0x9 PUSH1 0x20 MSTORE PUSH1 0x40 DUP1 DUP3 KECCAK256 DUP1 SLOAD PUSH1 0x1 PUSH1 0x1 PUSH1 0xA0 SHL SUB NOT SWAP1 DUP2 AND DUP3 SSTORE PUSH1 0x1 DUP3 ADD DUP1 SLOAD DUP3 AND SWAP1 SSTORE PUSH1 0x2 DUP3 ADD DUP5 SWAP1 SSTORE PUSH1 0x3 DUP3 ADD DUP5 SWAP1 SSTORE PUSH1 0x4 DUP3 ADD DUP1 SLOAD SWAP1 SWAP2 AND SWAP1 SSTORE PUSH1 0x5 ADD SWAP2 SWAP1 SWAP2 SSTORE MLOAD PUSH32 0xEE9865D272BB141CCDCB40B291B1D8FF68D3B73072A6BC571508A36403698AB5 SWAP2 POP PUSH2 0x61C SWAP1 DUP5 DUP2 MSTORE PUSH1 0x20 ADD SWAP1 JUMP JUMPDEST PUSH1 0x40 MLOAD DUP1 SWAP2 SUB SWAP1 LOG1 POP PUSH2 0x62E PUSH1 0x1 PUSH0 SSTORE JUMP JUMPDEST POP JUMP JUMPDEST PUSH2 0x639 PUSH2 0x16FD JUMP JUMPDEST PUSH2 0x642 PUSH0 PUSH2 0x172A JUMP JUMPDEST JUMP JUMPDEST PUSH2 0x64C PUSH2 0x16A6 JUMP JUMPDEST CALLER EXTCODESIZE ISZERO PUSH2 0x692 JUMPI PUSH1 0x40 MLOAD PUSH3 0x461BCD PUSH1 0xE5 SHL DUP2 MSTORE PUSH1 0x20 PUSH1 0x4 DUP3 ADD MSTORE PUSH1 0x14 PUSH1 0x24 DUP3 ADD MSTORE PUSH20 0x10DBDB9D1C9858DD081B9BDD08185B1B1BDDD959 PUSH1 0x62 SHL PUSH1 0x44 DUP3 ADD MSTORE PUSH1 0x64 ADD PUSH2 0x4B6 JUMP JUMPDEST CALLER ORIGIN EQ PUSH2 0x6E1 JUMPI PUSH1 0x40 MLOAD PUSH3 0x461BCD PUSH1 0xE5 SHL DUP2 MSTORE PUSH1 0x20 PUSH1 0x4 DUP3 ADD MSTORE PUSH1 0x1A PUSH1 0x24 DUP3 ADD MSTORE PUSH32 0x50726F787920636F6E7472616374206E6F7420616C6C6F776564000000000000 PUSH1 0x44 DUP3 ADD MSTORE PUSH1 0x64 ADD PUSH2 0x4B6 JUMP JUMPDEST PUSH0 DUP2 GT PUSH2 0x74D JUMPI PUSH1 0x40 MLOAD PUSH3 0x461BCD PUSH1 0xE5 SHL DUP2 MSTORE PUSH1 0x20 PUSH1 0x4 DUP3 ADD MSTORE PUSH1 0x34 PUSH1 0x24 DUP3 ADD MSTORE PUSH32 0x455243313135354E46544D61726B65743A207175616E74697479206D75737420 PUSH1 0x44 DUP3 ADD MSTORE PUSH20 0x62652067726561746572207468616E207A65726F PUSH1 0x60 SHL PUSH1 0x64 DUP3 ADD MSTORE PUSH1 0x84 ADD PUSH2 0x4B6 JUMP JUMPDEST PUSH0 DUP3 DUP2 MSTORE PUSH1 0xA PUSH1 0x20 MSTORE PUSH1 0x40 SWAP1 KECCAK256 PUSH1 0x3 ADD SLOAD DUP2 GT ISZERO PUSH2 0x7BF JUMPI PUSH1 0x40 MLOAD PUSH3 0x461BCD PUSH1 0xE5 SHL DUP2 MSTORE PUSH1 0x20 PUSH1 0x4 DUP3 ADD MSTORE PUSH1 0x29 PUSH1 0x24 DUP3 ADD MSTORE PUSH32 0x455243313135354E46544D61726B65743A207175616E74697479206973206E6F PUSH1 0x44 DUP3 ADD MSTORE PUSH9 0x1D08195B9BDD59DA1D PUSH1 0xBA SHL PUSH1 0x64 DUP3 ADD MSTORE PUSH1 0x84 ADD PUSH2 0x4B6 JUMP JUMPDEST PUSH0 DUP3 DUP2 MSTORE PUSH1 0xA PUSH1 0x20 MSTORE PUSH1 0x40 SWAP1 KECCAK256 PUSH1 0x3 DUP2 ADD SLOAD PUSH2 0x7DB SWAP1 DUP4 PUSH2 0x177B JUMP JUMPDEST PUSH1 0x3 DUP3 ADD SSTORE PUSH1 0x1 DUP2 ADD SLOAD PUSH1 0x1 PUSH1 0x1 PUSH1 0xA0 SHL SUB AND PUSH4 0xF242432A CALLER DUP4 SLOAD PUSH1 0x2 DUP6 ADD SLOAD PUSH1 0x40 MLOAD PUSH1 0xE0 DUP6 SWAP1 SHL PUSH1 0x1 PUSH1 0x1 PUSH1 0xE0 SHL SUB NOT AND DUP2 MSTORE PUSH1 0x1 PUSH1 0x1 PUSH1 0xA0 SHL SUB SWAP4 DUP5 AND PUSH1 0x4 DUP3 ADD MSTORE SWAP3 SWAP1 SWAP2 AND PUSH1 0x24 DUP4 ADD MSTORE PUSH1 0x44 DUP3 ADD MSTORE PUSH1 0x64 DUP2 ADD DUP6 SWAP1 MSTORE PUSH1 0xA0 PUSH1 0x84 DUP3 ADD MSTORE PUSH0 PUSH1 0xA4 DUP3 ADD MSTORE PUSH1 0xC4 ADD PUSH0 PUSH1 0x40 MLOAD DUP1 DUP4 SUB DUP2 PUSH0 DUP8 DUP1 EXTCODESIZE ISZERO DUP1 ISZERO PUSH2 0x85B JUMPI PUSH0 DUP1 REVERT JUMPDEST POP GAS CALL ISZERO DUP1 ISZERO PUSH2 0x86D JUMPI RETURNDATASIZE PUSH0 DUP1 RETURNDATACOPY RETURNDATASIZE PUSH0 REVERT JUMPDEST POP POP POP PUSH1 0x5 DUP3 ADD SLOAD PUSH0 SWAP2 POP PUSH2 0x882 SWAP1 DUP5 PUSH2 0x178D JUMP JUMPDEST PUSH1 0x1 DUP4 ADD SLOAD PUSH1 0x4 DUP5 ADD SLOAD SWAP2 SWAP3 POP PUSH0 SWAP2 PUSH2 0x8A8 SWAP2 PUSH1 0x1 PUSH1 0x1 PUSH1 0xA0 SHL SUB SWAP1 DUP2 AND SWAP2 AND DUP5 PUSH2 0x1798 JUMP JUMPDEST SWAP1 POP PUSH0 PUSH2 0x8B5 DUP4 DUP4 PUSH2 0x177B JUMP JUMPDEST SWAP1 POP PUSH2 0x8D0 CALLER PUSH1 0x4 DUP7 ADD SLOAD PUSH1 0x1 PUSH1 0x1 PUSH1 0xA0 SHL SUB AND SWAP1 DUP4 PUSH2 0x1883 JUMP JUMPDEST DUP4 PUSH1 0x3 ADD SLOAD PUSH0 SUB PUSH2 0x920 JUMPI PUSH0 DUP7 DUP2 MSTORE PUSH1 0xA PUSH1 0x20 MSTORE PUSH1 0x40 DUP2 KECCAK256 DUP1 SLOAD PUSH1 0x1 PUSH1 0x1 PUSH1 0xA0 SHL SUB NOT SWAP1 DUP2 AND DUP3 SSTORE PUSH1 0x1 DUP3 ADD DUP1 SLOAD DUP3 AND SWAP1 SSTORE PUSH1 0x2 DUP3 ADD DUP4 SWAP1 SSTORE PUSH1 0x3 DUP3 ADD DUP4 SWAP1 SSTORE PUSH1 0x4 DUP3 ADD DUP1 SLOAD SWAP1 SWAP2 AND SWAP1 SSTORE PUSH1 0x5 ADD SSTORE JUMPDEST PUSH32 0xD324686CBFEB2A923BD1B64BCC8F1AB0F8ADD322A66E8F92D24FA51D80C99A17 DUP7 CALLER JUMPDEST PUSH1 0x40 DUP1 MLOAD SWAP3 DUP4 MSTORE PUSH1 0x1 PUSH1 0x1 PUSH1 0xA0 SHL SUB SWAP1 SWAP2 AND PUSH1 0x20 DUP4 ADD MSTORE DUP2 ADD DUP8 SWAP1 MSTORE PUSH1 0x60 DUP2 ADD DUP6 SWAP1 MSTORE PUSH1 0x80 DUP2 ADD DUP4 SWAP1 MSTORE PUSH1 0xA0 ADD PUSH1 0x40 MLOAD DUP1 SWAP2 SUB SWAP1 LOG1 POP POP POP POP PUSH2 0x986 PUSH1 0x1 PUSH0 SSTORE JUMP JUMPDEST POP POP JUMP JUMPDEST PUSH2 0x992 PUSH2 0x16FD JUMP JUMPDEST PUSH1 0x5 SLOAD DUP2 GT ISZERO PUSH2 0x9CE JUMPI PUSH1 0x40 MLOAD PUSH3 0x461BCD PUSH1 0xE5 SHL DUP2 MSTORE PUSH1 0x20 PUSH1 0x4 DUP3 ADD MSTORE PUSH1 0x7 PUSH1 0x24 DUP3 ADD MSTORE PUSH7 0x6D61785F666565 PUSH1 0xC8 SHL PUSH1 0x44 DUP3 ADD MSTORE PUSH1 0x64 ADD PUSH2 0x4B6 JUMP JUMPDEST PUSH1 0x3 SSTORE JUMP JUMPDEST PUSH2 0x9DB PUSH2 0x16A6 JUMP JUMPDEST CALLER EXTCODESIZE ISZERO PUSH2 0xA21 JUMPI PUSH1 0x40 MLOAD PUSH3 0x461BCD PUSH1 0xE5 SHL DUP2 MSTORE PUSH1 0x20 PUSH1 0x4 DUP3 ADD MSTORE PUSH1 0x14 PUSH1 0x24 DUP3 ADD MSTORE PUSH20 0x10DBDB9D1C9858DD081B9BDD08185B1B1BDDD959 PUSH1 0x62 SHL PUSH1 0x44 DUP3 ADD MSTORE PUSH1 0x64 ADD PUSH2 0x4B6 JUMP JUMPDEST CALLER ORIGIN EQ PUSH2 0xA70 JUMPI PUSH1 0x40 MLOAD PUSH3 0x461BCD PUSH1 0xE5 SHL DUP2 MSTORE PUSH1 0x20 PUSH1 0x4 DUP3 ADD MSTORE PUSH1 0x1A PUSH1 0x24 DUP3 ADD MSTORE PUSH32 0x50726F787920636F6E7472616374206E6F7420616C6C6F776564000000000000 PUSH1 0x44 DUP3 ADD MSTORE PUSH1 0x64 ADD PUSH2 0x4B6 JUMP JUMPDEST PUSH0 DUP4 GT PUSH2 0xADD JUMPI PUSH1 0x40 MLOAD PUSH3 0x461BCD PUSH1 0xE5 SHL DUP2 MSTORE PUSH1 0x20 PUSH1 0x4 DUP3 ADD MSTORE PUSH1 0x35 PUSH1 0x24 DUP3 ADD MSTORE PUSH32 0x455243313135354E46544D61726B65743A205F7175616E74697479206D757374 PUSH1 0x44 DUP3 ADD MSTORE PUSH21 0x2062652067726561746572207468616E207A65726F PUSH1 0x58 SHL PUSH1 0x64 DUP3 ADD MSTORE PUSH1 0x84 ADD PUSH2 0x4B6 JUMP JUMPDEST PUSH0 DUP2 GT PUSH2 0xB52 JUMPI PUSH1 0x40 MLOAD PUSH3 0x461BCD PUSH1 0xE5 SHL DUP2 MSTORE PUSH1 0x20 PUSH1 0x4 DUP3 ADD MSTORE PUSH1 0x39 PUSH1 0x24 DUP3 ADD MSTORE PUSH32 0x455243313135354E46544D61726B65743A205F7072696365506572556E697420 PUSH1 0x44 DUP3 ADD MSTORE PUSH32 0x6D7573742062652067726561746572207468616E207A65726F00000000000000 PUSH1 0x64 DUP3 ADD MSTORE PUSH1 0x84 ADD PUSH2 0x4B6 JUMP JUMPDEST PUSH2 0xB60 PUSH1 0x7 DUP1 SLOAD PUSH1 0x1 ADD SWAP1 SSTORE JUMP JUMPDEST PUSH1 0x1 PUSH1 0x1 PUSH1 0xA0 SHL SUB DUP6 AND PUSH4 0xF242432A CALLER PUSH1 0x40 MLOAD PUSH1 0x1 PUSH1 0x1 PUSH1 0xE0 SHL SUB NOT PUSH1 0xE0 DUP5 SWAP1 SHL AND DUP2 MSTORE PUSH1 0x1 PUSH1 0x1 PUSH1 0xA0 SHL SUB SWAP1 SWAP2 AND PUSH1 0x4 DUP3 ADD MSTORE ADDRESS PUSH1 0x24 DUP3 ADD MSTORE PUSH1 0x44 DUP2 ADD DUP8 SWAP1 MSTORE PUSH1 0x64 DUP2 ADD DUP7 SWAP1 MSTORE PUSH1 0xA0 PUSH1 0x84 DUP3 ADD MSTORE PUSH0 PUSH1 0xA4 DUP3 ADD MSTORE PUSH1 0xC4 ADD PUSH0 PUSH1 0x40 MLOAD DUP1 DUP4 SUB DUP2 PUSH0 DUP8 DUP1 EXTCODESIZE ISZERO DUP1 ISZERO PUSH2 0xBCF JUMPI PUSH0 DUP1 REVERT JUMPDEST POP GAS CALL ISZERO DUP1 ISZERO PUSH2 0xBE1 JUMPI RETURNDATASIZE PUSH0 DUP1 RETURNDATACOPY RETURNDATASIZE PUSH0 REVERT JUMPDEST POP POP POP POP PUSH1 0x40 MLOAD DUP1 PUSH1 0xC0 ADD PUSH1 0x40 MSTORE DUP1 PUSH2 0xBF7 CALLER SWAP1 JUMP JUMPDEST PUSH1 0x1 PUSH1 0x1 PUSH1 0xA0 SHL SUB AND DUP2 MSTORE PUSH1 0x20 ADD DUP7 PUSH1 0x1 PUSH1 0x1 PUSH1 0xA0 SHL SUB AND DUP2 MSTORE PUSH1 0x20 ADD DUP6 DUP2 MSTORE PUSH1 0x20 ADD DUP5 DUP2 MSTORE PUSH1 0x20 ADD DUP4 PUSH1 0x1 PUSH1 0x1 PUSH1 0xA0 SHL SUB AND DUP2 MSTORE PUSH1 0x20 ADD DUP3 DUP2 MSTORE POP PUSH1 0x9 PUSH0 PUSH2 0xC3F PUSH1 0x7 SLOAD SWAP1 JUMP JUMPDEST DUP2 MSTORE PUSH1 0x20 DUP1 DUP3 ADD SWAP3 SWAP1 SWAP3 MSTORE PUSH1 0x40 SWAP1 DUP2 ADD PUSH0 KECCAK256 DUP4 MLOAD DUP2 SLOAD PUSH1 0x1 PUSH1 0x1 PUSH1 0xA0 SHL SUB NOT SWAP1 DUP2 AND PUSH1 0x1 PUSH1 0x1 PUSH1 0xA0 SHL SUB SWAP3 DUP4 AND OR DUP4 SSTORE SWAP4 DUP6 ADD MLOAD PUSH1 0x1 DUP4 ADD DUP1 SLOAD DUP7 AND SWAP2 DUP4 AND SWAP2 SWAP1 SWAP2 OR SWAP1 SSTORE SWAP2 DUP5 ADD MLOAD PUSH1 0x2 DUP3 ADD SSTORE PUSH1 0x60 DUP5 ADD MLOAD PUSH1 0x3 DUP3 ADD SSTORE PUSH1 0x80 DUP5 ADD MLOAD PUSH1 0x4 DUP3 ADD DUP1 SLOAD SWAP1 SWAP5 AND SWAP3 AND SWAP2 SWAP1 SWAP2 OR SWAP1 SWAP2 SSTORE PUSH1 0xA0 SWAP1 SWAP2 ADD MLOAD PUSH1 0x5 SWAP1 SWAP2 ADD SSTORE PUSH1 0x7 SLOAD PUSH32 0x29D76092D54D5025CD6EC35F3A84CC5EA4CFB96DEF8BF2B0159970DAE93375A5 SWAP1 JUMPDEST PUSH1 0x40 DUP1 MLOAD SWAP2 DUP3 MSTORE CALLER PUSH1 0x20 DUP4 ADD MSTORE PUSH1 0x1 PUSH1 0x1 PUSH1 0xA0 SHL SUB DUP9 DUP2 AND DUP4 DUP4 ADD MSTORE PUSH1 0x60 DUP4 ADD DUP9 SWAP1 MSTORE PUSH1 0x80 DUP4 ADD DUP8 SWAP1 MSTORE DUP6 AND PUSH1 0xA0 DUP4 ADD MSTORE PUSH1 0xC0 DUP3 ADD DUP5 SWAP1 MSTORE MLOAD SWAP1 DUP2 SWAP1 SUB PUSH1 0xE0 ADD SWAP1 LOG1 PUSH2 0xD2B PUSH1 0x1 PUSH0 SSTORE JUMP JUMPDEST POP POP POP POP POP JUMP JUMPDEST PUSH2 0xD3A PUSH2 0x16A6 JUMP JUMPDEST CALLER EXTCODESIZE ISZERO PUSH2 0xD80 JUMPI PUSH1 0x40 MLOAD PUSH3 0x461BCD PUSH1 0xE5 SHL DUP2 MSTORE PUSH1 0x20 PUSH1 0x4 DUP3 ADD MSTORE PUSH1 0x14 PUSH1 0x24 DUP3 ADD MSTORE PUSH20 0x10DBDB9D1C9858DD081B9BDD08185B1B1BDDD959 PUSH1 0x62 SHL PUSH1 0x44 DUP3 ADD MSTORE PUSH1 0x64 ADD PUSH2 0x4B6 JUMP JUMPDEST CALLER ORIGIN EQ PUSH2 0xDCF JUMPI PUSH1 0x40 MLOAD PUSH3 0x461BCD PUSH1 0xE5 SHL DUP2 MSTORE PUSH1 0x20 PUSH1 0x4 DUP3 ADD MSTORE PUSH1 0x1A PUSH1 0x24 DUP3 ADD MSTORE PUSH32 0x50726F787920636F6E7472616374206E6F7420616C6C6F776564000000000000 PUSH1 0x44 DUP3 ADD MSTORE PUSH1 0x64 ADD PUSH2 0x4B6 JUMP JUMPDEST PUSH0 DUP4 GT PUSH2 0xE3C JUMPI PUSH1 0x40 MLOAD PUSH3 0x461BCD PUSH1 0xE5 SHL DUP2 MSTORE PUSH1 0x20 PUSH1 0x4 DUP3 ADD MSTORE PUSH1 0x35 PUSH1 0x24 DUP3 ADD MSTORE PUSH32 0x455243313135354E46544D61726B65743A205F7175616E74697479206D757374 PUSH1 0x44 DUP3 ADD MSTORE PUSH21 0x2062652067726561746572207468616E207A65726F PUSH1 0x58 SHL PUSH1 0x64 DUP3 ADD MSTORE PUSH1 0x84 ADD PUSH2 0x4B6 JUMP JUMPDEST PUSH0 DUP2 GT PUSH2 0xEB1 JUMPI PUSH1 0x40 MLOAD PUSH3 0x461BCD PUSH1 0xE5 SHL DUP2 MSTORE PUSH1 0x20 PUSH1 0x4 DUP3 ADD MSTORE PUSH1 0x39 PUSH1 0x24 DUP3 ADD MSTORE PUSH32 0x455243313135354E46544D61726B65743A205F7072696365506572556E697420 PUSH1 0x44 DUP3 ADD MSTORE PUSH32 0x6D7573742062652067726561746572207468616E207A65726F00000000000000 PUSH1 0x64 DUP3 ADD MSTORE PUSH1 0x84 ADD PUSH2 0x4B6 JUMP JUMPDEST PUSH2 0xEBF PUSH1 0x8 DUP1 SLOAD PUSH1 0x1 ADD SWAP1 SSTORE JUMP JUMPDEST PUSH2 0xEE0 CALLER ADDRESS PUSH2 0xECE DUP5 DUP8 PUSH2 0x178D JUMP JUMPDEST PUSH1 0x1 PUSH1 0x1 PUSH1 0xA0 SHL SUB DUP7 AND SWAP3 SWAP2 SWAP1 PUSH2 0x18FC JUMP JUMPDEST PUSH1 0x40 MLOAD DUP1 PUSH1 0xC0 ADD PUSH1 0x40 MSTORE DUP1 PUSH2 0xEF2 CALLER SWAP1 JUMP JUMPDEST PUSH1 0x1 PUSH1 0x1 PUSH1 0xA0 SHL SUB AND DUP2 MSTORE PUSH1 0x20 ADD DUP7 PUSH1 0x1 PUSH1 0x1 PUSH1 0xA0 SHL SUB AND DUP2 MSTORE PUSH1 0x20 ADD DUP6 DUP2 MSTORE PUSH1 0x20 ADD DUP5 DUP2 MSTORE PUSH1 0x20 ADD DUP4 PUSH1 0x1 PUSH1 0x1 PUSH1 0xA0 SHL SUB AND DUP2 MSTORE PUSH1 0x20 ADD DUP3 DUP2 MSTORE POP PUSH1 0xA PUSH0 PUSH2 0xF3A PUSH1 0x8 SLOAD SWAP1 JUMP JUMPDEST DUP2 MSTORE PUSH1 0x20 DUP1 DUP3 ADD SWAP3 SWAP1 SWAP3 MSTORE PUSH1 0x40 SWAP1 DUP2 ADD PUSH0 KECCAK256 DUP4 MLOAD DUP2 SLOAD PUSH1 0x1 PUSH1 0x1 PUSH1 0xA0 SHL SUB NOT SWAP1 DUP2 AND PUSH1 0x1 PUSH1 0x1 PUSH1 0xA0 SHL SUB SWAP3 DUP4 AND OR DUP4 SSTORE SWAP4 DUP6 ADD MLOAD PUSH1 0x1 DUP4 ADD DUP1 SLOAD DUP7 AND SWAP2 DUP4 AND SWAP2 SWAP1 SWAP2 OR SWAP1 SSTORE SWAP2 DUP5 ADD MLOAD PUSH1 0x2 DUP3 ADD SSTORE PUSH1 0x60 DUP5 ADD MLOAD PUSH1 0x3 DUP3 ADD SSTORE PUSH1 0x80 DUP5 ADD MLOAD PUSH1 0x4 DUP3 ADD DUP1 SLOAD SWAP1 SWAP5 AND SWAP3 AND SWAP2 SWAP1 SWAP2 OR SWAP1 SWAP2 SSTORE PUSH1 0xA0 SWAP1 SWAP2 ADD MLOAD PUSH1 0x5 SWAP1 SWAP2 ADD SSTORE PUSH1 0x8 SLOAD PUSH32 0x3D7599A9DDFE5EA5B767A0CF245AC3473A20156930CF6C04C65DAECFA236FB97 SWAP1 PUSH2 0xCE0 JUMP JUMPDEST PUSH2 0xFE7 PUSH2 0x16A6 JUMP JUMPDEST CALLER EXTCODESIZE ISZERO PUSH2 0x102D JUMPI PUSH1 0x40 MLOAD PUSH3 0x461BCD PUSH1 0xE5 SHL DUP2 MSTORE PUSH1 0x20 PUSH1 0x4 DUP3 ADD MSTORE PUSH1 0x14 PUSH1 0x24 DUP3 ADD MSTORE PUSH20 0x10DBDB9D1C9858DD081B9BDD08185B1B1BDDD959 PUSH1 0x62 SHL PUSH1 0x44 DUP3 ADD MSTORE PUSH1 0x64 ADD PUSH2 0x4B6 JUMP JUMPDEST CALLER ORIGIN EQ PUSH2 0x107C JUMPI PUSH1 0x40 MLOAD PUSH3 0x461BCD PUSH1 0xE5 SHL DUP2 MSTORE PUSH1 0x20 PUSH1 0x4 DUP3 ADD MSTORE PUSH1 0x1A PUSH1 0x24 DUP3 ADD MSTORE PUSH32 0x50726F787920636F6E7472616374206E6F7420616C6C6F776564000000000000 PUSH1 0x44 DUP3 ADD MSTORE PUSH1 0x64 ADD PUSH2 0x4B6 JUMP JUMPDEST PUSH0 DUP2 GT PUSH2 0x10E8 JUMPI PUSH1 0x40 MLOAD PUSH3 0x461BCD PUSH1 0xE5 SHL DUP2 MSTORE PUSH1 0x20 PUSH1 0x4 DUP3 ADD MSTORE PUSH1 0x34 PUSH1 0x24 DUP3 ADD MSTORE PUSH32 0x455243313135354E46544D61726B65743A207175616E74697479206D75737420 PUSH1 0x44 DUP3 ADD MSTORE PUSH20 0x62652067726561746572207468616E207A65726F PUSH1 0x60 SHL PUSH1 0x64 DUP3 ADD MSTORE PUSH1 0x84 ADD PUSH2 0x4B6 JUMP JUMPDEST PUSH0 DUP3 DUP2 MSTORE PUSH1 0x9 PUSH1 0x20 MSTORE PUSH1 0x40 SWAP1 KECCAK256 PUSH1 0x3 ADD SLOAD DUP2 GT ISZERO PUSH2 0x115A JUMPI PUSH1 0x40 MLOAD PUSH3 0x461BCD PUSH1 0xE5 SHL DUP2 MSTORE PUSH1 0x20 PUSH1 0x4 DUP3 ADD MSTORE PUSH1 0x29 PUSH1 0x24 DUP3 ADD MSTORE PUSH32 0x455243313135354E46544D61726B65743A207175616E74697479206973206E6F PUSH1 0x44 DUP3 ADD MSTORE PUSH9 0x1D08195B9BDD59DA1D PUSH1 0xBA SHL PUSH1 0x64 DUP3 ADD MSTORE PUSH1 0x84 ADD PUSH2 0x4B6 JUMP JUMPDEST PUSH0 DUP3 DUP2 MSTORE PUSH1 0x9 PUSH1 0x20 MSTORE PUSH1 0x40 SWAP1 KECCAK256 PUSH1 0x3 DUP2 ADD SLOAD PUSH2 0x1176 SWAP1 DUP4 PUSH2 0x177B JUMP JUMPDEST PUSH1 0x3 DUP3 ADD SSTORE PUSH1 0x5 DUP2 ADD SLOAD PUSH0 SWAP1 PUSH2 0x118C SWAP1 DUP5 PUSH2 0x178D JUMP JUMPDEST SWAP1 POP PUSH2 0x11A8 CALLER PUSH1 0x4 DUP5 ADD SLOAD PUSH1 0x1 PUSH1 0x1 PUSH1 0xA0 SHL SUB AND SWAP1 ADDRESS DUP5 PUSH2 0x18FC JUMP JUMPDEST PUSH1 0x1 DUP3 ADD SLOAD PUSH1 0x4 DUP4 ADD SLOAD PUSH0 SWAP2 PUSH2 0x11CB SWAP2 PUSH1 0x1 PUSH1 0x1 PUSH1 0xA0 SHL SUB SWAP2 DUP3 AND SWAP2 AND DUP5 PUSH2 0x1798 JUMP JUMPDEST SWAP1 POP PUSH0 PUSH2 0x11D8 DUP4 DUP4 PUSH2 0x177B JUMP JUMPDEST DUP5 SLOAD PUSH1 0x4 DUP7 ADD SLOAD SWAP2 SWAP3 POP PUSH2 0x11F9 SWAP2 PUSH1 0x1 PUSH1 0x1 PUSH1 0xA0 SHL SUB SWAP1 DUP2 AND SWAP2 AND DUP4 PUSH2 0x1883 JUMP JUMPDEST PUSH1 0x1 DUP5 ADD SLOAD PUSH1 0x1 PUSH1 0x1 PUSH1 0xA0 SHL SUB AND PUSH4 0xF242432A ADDRESS CALLER PUSH1 0x2 DUP9 ADD SLOAD PUSH1 0x40 MLOAD PUSH1 0x1 PUSH1 0x1 PUSH1 0xE0 SHL SUB NOT PUSH1 0xE0 DUP7 SWAP1 SHL AND DUP2 MSTORE PUSH1 0x1 PUSH1 0x1 PUSH1 0xA0 SHL SUB SWAP4 DUP5 AND PUSH1 0x4 DUP3 ADD MSTORE SWAP3 SWAP1 SWAP2 AND PUSH1 0x24 DUP4 ADD MSTORE PUSH1 0x44 DUP3 ADD MSTORE PUSH1 0x64 DUP2 ADD DUP9 SWAP1 MSTORE PUSH1 0xA0 PUSH1 0x84 DUP3 ADD MSTORE PUSH0 PUSH1 0xA4 DUP3 ADD MSTORE PUSH1 0xC4 ADD PUSH0 PUSH1 0x40 MLOAD DUP1 DUP4 SUB DUP2 PUSH0 DUP8 DUP1 EXTCODESIZE ISZERO DUP1 ISZERO PUSH2 0x1273 JUMPI PUSH0 DUP1 REVERT JUMPDEST POP GAS CALL ISZERO DUP1 ISZERO PUSH2 0x1285 JUMPI RETURNDATASIZE PUSH0 DUP1 RETURNDATACOPY RETURNDATASIZE PUSH0 REVERT JUMPDEST POP POP POP POP DUP4 PUSH1 0x3 ADD SLOAD PUSH0 SUB PUSH2 0x12D9 JUMPI PUSH0 DUP7 DUP2 MSTORE PUSH1 0x9 PUSH1 0x20 MSTORE PUSH1 0x40 DUP2 KECCAK256 DUP1 SLOAD PUSH1 0x1 PUSH1 0x1 PUSH1 0xA0 SHL SUB NOT SWAP1 DUP2 AND DUP3 SSTORE PUSH1 0x1 DUP3 ADD DUP1 SLOAD DUP3 AND SWAP1 SSTORE PUSH1 0x2 DUP3 ADD DUP4 SWAP1 SSTORE PUSH1 0x3 DUP3 ADD DUP4 SWAP1 SSTORE PUSH1 0x4 DUP3 ADD DUP1 SLOAD SWAP1 SWAP2 AND SWAP1 SSTORE PUSH1 0x5 ADD SSTORE JUMPDEST PUSH32 0x7280BDF45DBD84499327763E7E91B31324C8FC5E8D556813089F71C9A8D91F5C DUP7 CALLER PUSH2 0x944 JUMP JUMPDEST PUSH2 0x1309 PUSH2 0x16FD JUMP JUMPDEST PUSH1 0x5 SLOAD DUP2 GT ISZERO PUSH2 0x1345 JUMPI PUSH1 0x40 MLOAD PUSH3 0x461BCD PUSH1 0xE5 SHL DUP2 MSTORE PUSH1 0x20 PUSH1 0x4 DUP3 ADD MSTORE PUSH1 0x7 PUSH1 0x24 DUP3 ADD MSTORE PUSH7 0x6D61785F666565 PUSH1 0xC8 SHL PUSH1 0x44 DUP3 ADD MSTORE PUSH1 0x64 ADD PUSH2 0x4B6 JUMP JUMPDEST PUSH1 0x1 PUSH1 0x1 PUSH1 0xA0 SHL SUB DUP4 AND PUSH2 0x138A JUMPI PUSH1 0x40 MLOAD PUSH3 0x461BCD PUSH1 0xE5 SHL DUP2 MSTORE PUSH1 0x20 PUSH1 0x4 DUP3 ADD MSTORE PUSH1 0xC PUSH1 0x24 DUP3 ADD MSTORE PUSH12 0x7A65726F2061646472657373 PUSH1 0xA0 SHL PUSH1 0x44 DUP3 ADD MSTORE PUSH1 0x64 ADD PUSH2 0x4B6 JUMP JUMPDEST PUSH1 0x1 PUSH1 0x1 PUSH1 0xA0 SHL SUB DUP3 AND PUSH2 0x13CF JUMPI PUSH1 0x40 MLOAD PUSH3 0x461BCD PUSH1 0xE5 SHL DUP2 MSTORE PUSH1 0x20 PUSH1 0x4 DUP3 ADD MSTORE PUSH1 0xC PUSH1 0x24 DUP3 ADD MSTORE PUSH12 0x7A65726F2061646472657373 PUSH1 0xA0 SHL PUSH1 0x44 DUP3 ADD MSTORE PUSH1 0x64 ADD PUSH2 0x4B6 JUMP JUMPDEST PUSH1 0x40 DUP1 MLOAD DUP1 DUP3 ADD DUP3 MSTORE DUP3 DUP2 MSTORE PUSH1 0x1 PUSH1 0x1 PUSH1 0xA0 SHL SUB DUP5 DUP2 AND PUSH1 0x20 DUP1 DUP5 ADD SWAP2 DUP3 MSTORE DUP8 DUP4 AND PUSH0 SWAP1 DUP2 MSTORE PUSH1 0x6 DUP3 MSTORE DUP6 SWAP1 KECCAK256 SWAP4 MLOAD DUP1 DUP6 SSTORE SWAP2 MLOAD PUSH1 0x1 SWAP1 SWAP5 ADD DUP1 SLOAD SWAP5 SWAP1 SWAP4 AND PUSH1 0x1 PUSH1 0x1 PUSH1 0xA0 SHL SUB NOT SWAP1 SWAP5 AND DUP5 OR SWAP1 SWAP3 SSTORE DUP4 MLOAD CALLER DUP2 MSTORE SWAP2 DUP3 ADD MSTORE DUP1 DUP4 ADD SWAP2 SWAP1 SWAP2 MSTORE SWAP1 MLOAD PUSH32 0xFF46874AFEAD5E80822ECF46DDA060808CD504220DF8A1B17ACBDF840E154541 SWAP2 DUP2 SWAP1 SUB PUSH1 0x60 ADD SWAP1 LOG1 POP POP POP JUMP JUMPDEST PUSH2 0x1468 PUSH2 0x16FD JUMP JUMPDEST PUSH1 0x1 PUSH1 0x1 PUSH1 0xA0 SHL SUB DUP2 AND PUSH2 0x14CC JUMPI PUSH1 0x40 MLOAD PUSH3 0x461BCD PUSH1 0xE5 SHL DUP2 MSTORE PUSH1 0x20 PUSH1 0x4 DUP3 ADD MSTORE PUSH1 0x25 PUSH1 0x24 DUP3 ADD MSTORE PUSH32 0x4572633732314E46544665654469737472696275746F723A207A65726F206164 PUSH1 0x44 DUP3 ADD MSTORE PUSH5 0x6472657373 PUSH1 0xD8 SHL PUSH1 0x64 DUP3 ADD MSTORE PUSH1 0x84 ADD PUSH2 0x4B6 JUMP JUMPDEST PUSH1 0x2 DUP1 SLOAD PUSH1 0x1 PUSH1 0x1 PUSH1 0xA0 SHL SUB NOT AND PUSH1 0x1 PUSH1 0x1 PUSH1 0xA0 SHL SUB SWAP3 SWAP1 SWAP3 AND SWAP2 SWAP1 SWAP2 OR SWAP1 SSTORE JUMP JUMPDEST PUSH2 0x14F6 PUSH2 0x16A6 JUMP JUMPDEST PUSH0 DUP2 DUP2 MSTORE PUSH1 0xA PUSH1 0x20 MSTORE PUSH1 0x40 SWAP1 KECCAK256 SLOAD PUSH1 0x1 PUSH1 0x1 PUSH1 0xA0 SHL SUB AND CALLER EQ PUSH2 0x1566 JUMPI PUSH1 0x40 MLOAD PUSH3 0x461BCD PUSH1 0xE5 SHL DUP2 MSTORE PUSH1 0x20 PUSH1 0x4 DUP3 ADD MSTORE PUSH1 0x22 PUSH1 0x24 DUP3 ADD MSTORE PUSH32 0x455243313135354E46544D61726B65743A206F6E6C79206F66666572206F776E PUSH1 0x44 DUP3 ADD MSTORE PUSH2 0x32B9 PUSH1 0xF1 SHL PUSH1 0x64 DUP3 ADD MSTORE PUSH1 0x84 ADD PUSH2 0x4B6 JUMP JUMPDEST PUSH0 DUP2 DUP2 MSTORE PUSH1 0xA PUSH1 0x20 SWAP1 DUP2 MSTORE PUSH1 0x40 SWAP2 DUP3 SWAP1 KECCAK256 DUP3 MLOAD PUSH1 0xC0 DUP2 ADD DUP5 MSTORE DUP2 SLOAD PUSH1 0x1 PUSH1 0x1 PUSH1 0xA0 SHL SUB SWAP1 DUP2 AND DUP1 DUP4 MSTORE PUSH1 0x1 DUP5 ADD SLOAD DUP3 AND SWAP5 DUP4 ADD SWAP5 SWAP1 SWAP5 MSTORE PUSH1 0x2 DUP4 ADD SLOAD SWAP5 DUP3 ADD SWAP5 SWAP1 SWAP5 MSTORE PUSH1 0x3 DUP3 ADD SLOAD PUSH1 0x60 DUP3 ADD DUP2 SWAP1 MSTORE PUSH1 0x4 DUP4 ADD SLOAD SWAP1 SWAP5 AND PUSH1 0x80 DUP3 ADD MSTORE PUSH1 0x5 SWAP1 SWAP2 ADD SLOAD PUSH1 0xA0 DUP3 ADD DUP2 SWAP1 MSTORE SWAP1 SWAP3 PUSH2 0x15F4 SWAP3 SWAP2 PUSH2 0x15DF SWAP2 PUSH2 0x178D JUMP JUMPDEST PUSH1 0x80 DUP5 ADD MLOAD PUSH1 0x1 PUSH1 0x1 PUSH1 0xA0 SHL SUB AND SWAP2 SWAP1 PUSH2 0x1883 JUMP JUMPDEST PUSH0 DUP3 DUP2 MSTORE PUSH1 0xA PUSH1 0x20 MSTORE PUSH1 0x40 DUP1 DUP3 KECCAK256 DUP1 SLOAD PUSH1 0x1 PUSH1 0x1 PUSH1 0xA0 SHL SUB NOT SWAP1 DUP2 AND DUP3 SSTORE PUSH1 0x1 DUP3 ADD DUP1 SLOAD DUP3 AND SWAP1 SSTORE PUSH1 0x2 DUP3 ADD DUP5 SWAP1 SSTORE PUSH1 0x3 DUP3 ADD DUP5 SWAP1 SSTORE PUSH1 0x4 DUP3 ADD DUP1 SLOAD SWAP1 SWAP2 AND SWAP1 SSTORE PUSH1 0x5 ADD SWAP2 SWAP1 SWAP2 SSTORE MLOAD PUSH32 0x794D5735AB1EAFDBD50C755C48BF80523551293F59A2B254B54F125017BC4E94 SWAP1 PUSH2 0x61C SWAP1 DUP5 DUP2 MSTORE PUSH1 0x20 ADD SWAP1 JUMP JUMPDEST PUSH2 0x1674 PUSH2 0x16FD JUMP JUMPDEST PUSH1 0x1 PUSH1 0x1 PUSH1 0xA0 SHL SUB DUP2 AND PUSH2 0x169D JUMPI PUSH1 0x40 MLOAD PUSH4 0x1E4FBDF7 PUSH1 0xE0 SHL DUP2 MSTORE PUSH0 PUSH1 0x4 DUP3 ADD MSTORE PUSH1 0x24 ADD PUSH2 0x4B6 JUMP JUMPDEST PUSH2 0x62E DUP2 PUSH2 0x172A JUMP JUMPDEST PUSH1 0x2 PUSH0 SLOAD SUB PUSH2 0x16F7 JUMPI PUSH1 0x40 MLOAD PUSH3 0x461BCD PUSH1 0xE5 SHL DUP2 MSTORE PUSH1 0x20 PUSH1 0x4 DUP3 ADD MSTORE PUSH1 0x1F PUSH1 0x24 DUP3 ADD MSTORE PUSH32 0x5265656E7472616E637947756172643A207265656E7472616E742063616C6C00 PUSH1 0x44 DUP3 ADD MSTORE PUSH1 0x64 ADD PUSH2 0x4B6 JUMP JUMPDEST PUSH1 0x2 PUSH0 SSTORE JUMP JUMPDEST PUSH1 0x1 SLOAD PUSH1 0x1 PUSH1 0x1 PUSH1 0xA0 SHL SUB AND CALLER EQ PUSH2 0x642 JUMPI PUSH1 0x40 MLOAD PUSH4 0x118CDAA7 PUSH1 0xE0 SHL DUP2 MSTORE CALLER PUSH1 0x4 DUP3 ADD MSTORE PUSH1 0x24 ADD PUSH2 0x4B6 JUMP JUMPDEST PUSH1 0x1 DUP1 SLOAD PUSH1 0x1 PUSH1 0x1 PUSH1 0xA0 SHL SUB DUP4 DUP2 AND PUSH1 0x1 PUSH1 0x1 PUSH1 0xA0 SHL SUB NOT DUP4 AND DUP2 OR SWAP1 SWAP4 SSTORE PUSH1 0x40 MLOAD SWAP2 AND SWAP2 SWAP1 DUP3 SWAP1 PUSH32 0x8BE0079C531659141344CD1FD0A4F28419497F9722A3DAAFE3B4186F6B6457E0 SWAP1 PUSH0 SWAP1 LOG3 POP POP JUMP JUMPDEST PUSH0 PUSH2 0x1786 DUP3 DUP5 PUSH2 0x1E0E JUMP JUMPDEST SWAP4 SWAP3 POP POP POP JUMP JUMPDEST PUSH0 PUSH2 0x1786 DUP3 DUP5 PUSH2 0x1E21 JUMP JUMPDEST PUSH1 0x2 SLOAD PUSH0 SWAP1 DUP2 SWAP1 DUP2 SWAP1 PUSH1 0x1 PUSH1 0x1 PUSH1 0xA0 SHL SUB AND ISZERO PUSH2 0x17FA JUMPI PUSH2 0x17D0 PUSH2 0x2710 PUSH2 0x17CA PUSH1 0x3 SLOAD DUP8 PUSH2 0x178D SWAP1 SWAP2 SWAP1 PUSH4 0xFFFFFFFF AND JUMP JUMPDEST SWAP1 PUSH2 0x193B JUMP JUMPDEST PUSH1 0x2 SLOAD SWAP1 SWAP3 POP PUSH2 0x17ED SWAP1 PUSH1 0x1 PUSH1 0x1 PUSH1 0xA0 SHL SUB DUP8 DUP2 AND SWAP2 AND DUP5 PUSH2 0x1883 JUMP JUMPDEST PUSH2 0x17F7 DUP2 DUP4 PUSH2 0x1946 JUMP JUMPDEST SWAP1 POP JUMPDEST PUSH1 0x1 PUSH1 0x1 PUSH1 0xA0 SHL SUB DUP1 DUP8 AND PUSH0 SWAP1 DUP2 MSTORE PUSH1 0x6 PUSH1 0x20 SWAP1 DUP2 MSTORE PUSH1 0x40 SWAP2 DUP3 SWAP1 KECCAK256 DUP3 MLOAD DUP1 DUP5 ADD SWAP1 SWAP4 MSTORE DUP1 SLOAD DUP4 MSTORE PUSH1 0x1 ADD SLOAD SWAP1 SWAP3 AND SWAP2 DUP2 ADD DUP3 SWAP1 MSTORE SWAP1 ISZERO PUSH2 0x1879 JUMPI DUP1 MLOAD PUSH2 0x184A SWAP1 PUSH2 0x2710 SWAP1 PUSH2 0x17CA SWAP1 DUP9 SWAP1 PUSH2 0x178D JUMP JUMPDEST SWAP3 POP DUP3 ISZERO PUSH2 0x186C JUMPI PUSH1 0x20 DUP2 ADD MLOAD PUSH2 0x186C SWAP1 PUSH1 0x1 PUSH1 0x1 PUSH1 0xA0 SHL SUB DUP9 AND SWAP1 DUP6 PUSH2 0x1883 JUMP JUMPDEST PUSH2 0x1876 DUP3 DUP5 PUSH2 0x1946 JUMP JUMPDEST SWAP2 POP JUMPDEST POP SWAP6 SWAP5 POP POP POP POP POP JUMP JUMPDEST PUSH1 0x40 MLOAD PUSH1 0x1 PUSH1 0x1 PUSH1 0xA0 SHL SUB DUP4 DUP2 AND PUSH1 0x24 DUP4 ADD MSTORE PUSH1 0x44 DUP3 ADD DUP4 SWAP1 MSTORE PUSH2 0x18F7 SWAP2 DUP6 SWAP2 DUP3 AND SWAP1 PUSH4 0xA9059CBB SWAP1 PUSH1 0x64 ADD JUMPDEST PUSH1 0x40 MLOAD PUSH1 0x20 DUP2 DUP4 SUB SUB DUP2 MSTORE SWAP1 PUSH1 0x40 MSTORE SWAP2 POP PUSH1 0xE0 SHL PUSH1 0x20 DUP3 ADD DUP1 MLOAD PUSH28 0xFFFFFFFFFFFFFFFFFFFFFFFFFFFFFFFFFFFFFFFFFFFFFFFFFFFFFFFF DUP4 DUP2 DUP4 AND OR DUP4 MSTORE POP POP POP POP PUSH2 0x1951 JUMP JUMPDEST POP POP POP JUMP JUMPDEST PUSH1 0x40 MLOAD PUSH1 0x1 PUSH1 0x1 PUSH1 0xA0 SHL SUB DUP5 DUP2 AND PUSH1 0x24 DUP4 ADD MSTORE DUP4 DUP2 AND PUSH1 0x44 DUP4 ADD MSTORE PUSH1 0x64 DUP3 ADD DUP4 SWAP1 MSTORE PUSH2 0x1935 SWAP2 DUP7 SWAP2 DUP3 AND SWAP1 PUSH4 0x23B872DD SWAP1 PUSH1 0x84 ADD PUSH2 0x18B0 JUMP JUMPDEST POP POP POP POP JUMP JUMPDEST PUSH0 PUSH2 0x1786 DUP3 DUP5 PUSH2 0x1E38 JUMP JUMPDEST PUSH0 PUSH2 0x1786 DUP3 DUP5 PUSH2 0x1E57 JUMP JUMPDEST PUSH0 PUSH2 0x1965 PUSH1 0x1 PUSH1 0x1 PUSH1 0xA0 SHL SUB DUP5 AND DUP4 PUSH2 0x19B2 JUMP JUMPDEST SWAP1 POP DUP1 MLOAD PUSH0 EQ ISZERO DUP1 ISZERO PUSH2 0x1989 JUMPI POP DUP1 DUP1 PUSH1 0x20 ADD SWAP1 MLOAD DUP2 ADD SWAP1 PUSH2 0x1987 SWAP2 SWAP1 PUSH2 0x1E6A JUMP JUMPDEST ISZERO JUMPDEST ISZERO PUSH2 0x18F7 JUMPI PUSH1 0x40 MLOAD PUSH4 0x5274AFE7 PUSH1 0xE0 SHL DUP2 MSTORE PUSH1 0x1 PUSH1 0x1 PUSH1 0xA0 SHL SUB DUP5 AND PUSH1 0x4 DUP3 ADD MSTORE PUSH1 0x24 ADD PUSH2 0x4B6 JUMP JUMPDEST PUSH1 0x60 PUSH2 0x1786 DUP4 DUP4 PUSH0 DUP5 PUSH0 DUP1 DUP6 PUSH1 0x1 PUSH1 0x1 PUSH1 0xA0 SHL SUB AND DUP5 DUP7 PUSH1 0x40 MLOAD PUSH2 0x19D6 SWAP2 SWAP1 PUSH2 0x1E89 JUMP JUMPDEST PUSH0 PUSH1 0x40 MLOAD DUP1 DUP4 SUB DUP2 DUP6 DUP8 GAS CALL SWAP3 POP POP POP RETURNDATASIZE DUP1 PUSH0 DUP2 EQ PUSH2 0x1A10 JUMPI PUSH1 0x40 MLOAD SWAP2 POP PUSH1 0x1F NOT PUSH1 0x3F RETURNDATASIZE ADD AND DUP3 ADD PUSH1 0x40 MSTORE RETURNDATASIZE DUP3 MSTORE RETURNDATASIZE PUSH0 PUSH1 0x20 DUP5 ADD RETURNDATACOPY PUSH2 0x1A15 JUMP JUMPDEST PUSH1 0x60 SWAP2 POP JUMPDEST POP SWAP2 POP SWAP2 POP PUSH2 0x1A25 DUP7 DUP4 DUP4 PUSH2 0x1A2F JUMP JUMPDEST SWAP7 SWAP6 POP POP POP POP POP POP JUMP JUMPDEST PUSH1 0x60 DUP3 PUSH2 0x1A44 JUMPI PUSH2 0x1A3F DUP3 PUSH2 0x1A8B JUMP JUMPDEST PUSH2 0x1786 JUMP JUMPDEST DUP2 MLOAD ISZERO DUP1 ISZERO PUSH2 0x1A5B JUMPI POP PUSH1 0x1 PUSH1 0x1 PUSH1 0xA0 SHL SUB DUP5 AND EXTCODESIZE ISZERO JUMPDEST ISZERO PUSH2 0x1A84 JUMPI PUSH1 0x40 MLOAD PUSH4 0x9996B315 PUSH1 0xE0 SHL DUP2 MSTORE PUSH1 0x1 PUSH1 0x1 PUSH1 0xA0 SHL SUB DUP6 AND PUSH1 0x4 DUP3 ADD MSTORE PUSH1 0x24 ADD PUSH2 0x4B6 JUMP JUMPDEST POP DUP1 PUSH2 0x1786 JUMP JUMPDEST DUP1 MLOAD ISZERO PUSH2 0x1A9B JUMPI DUP1 MLOAD DUP1 DUP3 PUSH1 0x20 ADD REVERT JUMPDEST PUSH1 0x40 MLOAD PUSH4 0xA12F521 PUSH1 0xE1 SHL DUP2 MSTORE PUSH1 0x4 ADD PUSH1 0x40 MLOAD DUP1 SWAP2 SUB SWAP1 REVERT JUMPDEST PUSH0 PUSH1 0x20 DUP3 DUP5 SUB SLT ISZERO PUSH2 0x1AC4 JUMPI PUSH0 DUP1 REVERT JUMPDEST DUP2 CALLDATALOAD PUSH1 0x1 PUSH1 0x1 PUSH1 0xE0 SHL SUB NOT DUP2 AND DUP2 EQ PUSH2 0x1786 JUMPI PUSH0 DUP1 REVERT JUMPDEST PUSH0 PUSH1 0x20 DUP3 DUP5 SUB SLT ISZERO PUSH2 0x1AEB JUMPI PUSH0 DUP1 REVERT JUMPDEST POP CALLDATALOAD SWAP2 SWAP1 POP JUMP JUMPDEST DUP1 CALLDATALOAD PUSH1 0x1 PUSH1 0x1 PUSH1 0xA0 SHL SUB DUP2 AND DUP2 EQ PUSH2 0x1B08 JUMPI PUSH0 DUP1 REVERT JUMPDEST SWAP2 SWAP1 POP JUMP JUMPDEST PUSH0 PUSH1 0x20 DUP3 DUP5 SUB SLT ISZERO PUSH2 0x1B1D JUMPI PUSH0 DUP1 REVERT JUMPDEST PUSH2 0x1786 DUP3 PUSH2 0x1AF2 JUMP JUMPDEST PUSH0 DUP1 PUSH1 0x40 DUP4 DUP6 SUB SLT ISZERO PUSH2 0x1B37 JUMPI PUSH0 DUP1 REVERT JUMPDEST POP POP DUP1 CALLDATALOAD SWAP3 PUSH1 0x20 SWAP1 SWAP2 ADD CALLDATALOAD SWAP2 POP JUMP JUMPDEST PUSH0 DUP1 PUSH0 DUP1 PUSH0 PUSH1 0xA0 DUP7 DUP9 SUB SLT ISZERO PUSH2 0x1B5A JUMPI PUSH0 DUP1 REVERT JUMPDEST PUSH2 0x1B63 DUP7 PUSH2 0x1AF2 JUMP JUMPDEST SWAP5 POP PUSH1 0x20 DUP7 ADD CALLDATALOAD SWAP4 POP PUSH1 0x40 DUP7 ADD CALLDATALOAD SWAP3 POP PUSH2 0x1B7F PUSH1 0x60 DUP8 ADD PUSH2 0x1AF2 JUMP JUMPDEST SWAP5 SWAP8 SWAP4 SWAP7 POP SWAP2 SWAP5 PUSH1 0x80 ADD CALLDATALOAD SWAP3 SWAP2 POP POP JUMP JUMPDEST PUSH4 0x4E487B71 PUSH1 0xE0 SHL PUSH0 MSTORE PUSH1 0x41 PUSH1 0x4 MSTORE PUSH1 0x24 PUSH0 REVERT JUMPDEST PUSH1 0x40 MLOAD PUSH1 0x1F DUP3 ADD PUSH1 0x1F NOT AND DUP2 ADD PUSH8 0xFFFFFFFFFFFFFFFF DUP2 GT DUP3 DUP3 LT OR ISZERO PUSH2 0x1BCD JUMPI PUSH2 0x1BCD PUSH2 0x1B90 JUMP JUMPDEST PUSH1 0x40 MSTORE SWAP2 SWAP1 POP JUMP JUMPDEST PUSH0 DUP3 PUSH1 0x1F DUP4 ADD SLT PUSH2 0x1BE4 JUMPI PUSH0 DUP1 REVERT JUMPDEST DUP2 CALLDATALOAD PUSH1 0x20 PUSH8 0xFFFFFFFFFFFFFFFF DUP3 GT ISZERO PUSH2 0x1C00 JUMPI PUSH2 0x1C00 PUSH2 0x1B90 JUMP JUMPDEST DUP2 PUSH1 0x5 SHL PUSH2 0x1C0F DUP3 DUP3 ADD PUSH2 0x1BA4 JUMP JUMPDEST SWAP3 DUP4 MSTORE DUP5 DUP2 ADD DUP3 ADD SWAP3 DUP3 DUP2 ADD SWAP1 DUP8 DUP6 GT ISZERO PUSH2 0x1C28 JUMPI PUSH0 DUP1 REVERT JUMPDEST DUP4 DUP8 ADD SWAP3 POP JUMPDEST DUP5 DUP4 LT ISZERO PUSH2 0x1C47 JUMPI DUP3 CALLDATALOAD DUP3 MSTORE SWAP2 DUP4 ADD SWAP2 SWAP1 DUP4 ADD SWAP1 PUSH2 0x1C2E JUMP JUMPDEST SWAP8 SWAP7 POP POP POP POP POP POP POP JUMP JUMPDEST PUSH0 DUP3 PUSH1 0x1F DUP4 ADD SLT PUSH2 0x1C61 JUMPI PUSH0 DUP1 REVERT JUMPDEST DUP2 CALLDATALOAD PUSH8 0xFFFFFFFFFFFFFFFF DUP2 GT ISZERO PUSH2 0x1C7B JUMPI PUSH2 0x1C7B PUSH2 0x1B90 JUMP JUMPDEST PUSH2 0x1C8E PUSH1 0x1F DUP3 ADD PUSH1 0x1F NOT AND PUSH1 0x20 ADD PUSH2 0x1BA4 JUMP JUMPDEST DUP2 DUP2 MSTORE DUP5 PUSH1 0x20 DUP4 DUP7 ADD ADD GT ISZERO PUSH2 0x1CA2 JUMPI PUSH0 DUP1 REVERT JUMPDEST DUP2 PUSH1 0x20 DUP6 ADD PUSH1 0x20 DUP4 ADD CALLDATACOPY PUSH0 SWAP2 DUP2 ADD PUSH1 0x20 ADD SWAP2 SWAP1 SWAP2 MSTORE SWAP4 SWAP3 POP POP POP JUMP JUMPDEST PUSH0 DUP1 PUSH0 DUP1 PUSH0 PUSH1 0xA0 DUP7 DUP9 SUB SLT ISZERO PUSH2 0x1CD2 JUMPI PUSH0 DUP1 REVERT JUMPDEST PUSH2 0x1CDB DUP7 PUSH2 0x1AF2 JUMP JUMPDEST SWAP5 POP PUSH2 0x1CE9 PUSH1 0x20 DUP8 ADD PUSH2 0x1AF2 JUMP JUMPDEST SWAP4 POP PUSH1 0x40 DUP7 ADD CALLDATALOAD PUSH8 0xFFFFFFFFFFFFFFFF DUP1 DUP3 GT ISZERO PUSH2 0x1D05 JUMPI PUSH0 DUP1 REVERT JUMPDEST PUSH2 0x1D11 DUP10 DUP4 DUP11 ADD PUSH2 0x1BD5 JUMP JUMPDEST SWAP5 POP PUSH1 0x60 DUP9 ADD CALLDATALOAD SWAP2 POP DUP1 DUP3 GT ISZERO PUSH2 0x1D26 JUMPI PUSH0 DUP1 REVERT JUMPDEST PUSH2 0x1D32 DUP10 DUP4 DUP11 ADD PUSH2 0x1BD5 JUMP JUMPDEST SWAP4 POP PUSH1 0x80 DUP9 ADD CALLDATALOAD SWAP2 POP DUP1 DUP3 GT ISZERO PUSH2 0x1D47 JUMPI PUSH0 DUP1 REVERT JUMPDEST POP PUSH2 0x1D54 DUP9 DUP3 DUP10 ADD PUSH2 0x1C52 JUMP JUMPDEST SWAP2 POP POP SWAP3 SWAP6 POP SWAP3 SWAP6 SWAP1 SWAP4 POP JUMP JUMPDEST PUSH0 DUP1 PUSH0 PUSH1 0x60 DUP5 DUP7 SUB SLT ISZERO PUSH2 0x1D73 JUMPI PUSH0 DUP1 REVERT JUMPDEST PUSH2 0x1D7C DUP5 PUSH2 0x1AF2 JUMP JUMPDEST SWAP3 POP PUSH2 0x1D8A PUSH1 0x20 DUP6 ADD PUSH2 0x1AF2 JUMP JUMPDEST SWAP2 POP PUSH1 0x40 DUP5 ADD CALLDATALOAD SWAP1 POP SWAP3 POP SWAP3 POP SWAP3 JUMP JUMPDEST PUSH0 DUP1 PUSH0 DUP1 PUSH0 PUSH1 0xA0 DUP7 DUP9 SUB SLT ISZERO PUSH2 0x1DAE JUMPI PUSH0 DUP1 REVERT JUMPDEST PUSH2 0x1DB7 DUP7 PUSH2 0x1AF2 JUMP JUMPDEST SWAP5 POP PUSH2 0x1DC5 PUSH1 0x20 DUP8 ADD PUSH2 0x1AF2 JUMP JUMPDEST SWAP4 POP PUSH1 0x40 DUP7 ADD CALLDATALOAD SWAP3 POP PUSH1 0x60 DUP7 ADD CALLDATALOAD SWAP2 POP PUSH1 0x80 DUP7 ADD CALLDATALOAD PUSH8 0xFFFFFFFFFFFFFFFF DUP2 GT ISZERO PUSH2 0x1DEE JUMPI PUSH0 DUP1 REVERT JUMPDEST PUSH2 0x1D54 DUP9 DUP3 DUP10 ADD PUSH2 0x1C52 JUMP JUMPDEST PUSH4 0x4E487B71 PUSH1 0xE0 SHL PUSH0 MSTORE PUSH1 0x11 PUSH1 0x4 MSTORE PUSH1 0x24 PUSH0 REVERT JUMPDEST DUP2 DUP2 SUB DUP2 DUP2 GT ISZERO PUSH2 0x447 JUMPI PUSH2 0x447 PUSH2 0x1DFA JUMP JUMPDEST DUP1 DUP3 MUL DUP2 ISZERO DUP3 DUP3 DIV DUP5 EQ OR PUSH2 0x447 JUMPI PUSH2 0x447 PUSH2 0x1DFA JUMP JUMPDEST PUSH0 DUP3 PUSH2 0x1E52 JUMPI PUSH4 0x4E487B71 PUSH1 0xE0 SHL PUSH0 MSTORE PUSH1 0x12 PUSH1 0x4 MSTORE PUSH1 0x24 PUSH0 REVERT JUMPDEST POP DIV SWAP1 JUMP JUMPDEST DUP1 DUP3 ADD DUP1 DUP3 GT ISZERO PUSH2 0x447 JUMPI PUSH2 0x447 PUSH2 0x1DFA JUMP JUMPDEST PUSH0 PUSH1 0x20 DUP3 DUP5 SUB SLT ISZERO PUSH2 0x1E7A JUMPI PUSH0 DUP1 REVERT JUMPDEST DUP2 MLOAD DUP1 ISZERO ISZERO DUP2 EQ PUSH2 0x1786 JUMPI PUSH0 DUP1 REVERT JUMPDEST PUSH0 DUP3 MLOAD PUSH0 JUMPDEST DUP2 DUP2 LT ISZERO PUSH2 0x1EA8 JUMPI PUSH1 0x20 DUP2 DUP7 ADD DUP2 ADD MLOAD DUP6 DUP4 ADD MSTORE ADD PUSH2 0x1E8E JUMP JUMPDEST POP PUSH0 SWAP3 ADD SWAP2 DUP3 MSTORE POP SWAP2 SWAP1 POP JUMP INVALID LOG2 PUSH5 0x6970667358 0x22 SLT KECCAK256 REVERT 0x2B MULMOD 0x4A 0x2E GASPRICE 0xE6 0x2D 0xFC ORIGIN 0xDD CALLCODE NUMBER 0xD6 PUSH14 0xA0FED68AF7383C63E57AE9002F64 SWAP2 DUP6 0xDE PUSH5 0x736F6C6343 STOP ADDMOD ISZERO STOP CALLER "
		},
		"gasEstimates": {
			"creation": {
				"codeDepositCost": "1583000",
				"executionCost": "infinite",
				"totalCost": "infinite"
			},
			"external": {
				"MAX_FEE()": "2339",
				"acceptOffer(uint256,uint256)": "infinite",
				"asks(uint256)": "13236",
				"buy(uint256,uint256)": "infinite",
				"cancelAsk(uint256)": "infinite",
				"cancelOffer(uint256)": "infinite",
				"collections(address)": "4778",
				"createAsk(address,uint256,uint256,address,uint256)": "infinite",
				"createOffer(address,uint256,uint256,address,uint256)": "infinite",
				"offers(uint256)": "13257",
				"onERC1155BatchReceived(address,address,uint256[],uint256[],bytes)": "infinite",
				"onERC1155Received(address,address,uint256,uint256,bytes)": "infinite",
				"owner()": "2419",
				"protocolFeePercent()": "2405",
				"protocolFeeRecipient()": "2448",
				"renounceOwnership()": "infinite",
				"setCollection(address,address,uint256)": "infinite",
				"setProtocolFeePercent(uint256)": "26723",
				"setProtocolFeeRecipient(address)": "26857",
				"supportsInterface(bytes4)": "447",
				"transferOwnership(address)": "28421"
			},
			"internal": {
				"_isContract(address)": "infinite"
			}
		},
		"methodIdentifiers": {
			"MAX_FEE()": "bc063e1a",
			"acceptOffer(uint256,uint256)": "81257bd5",
			"asks(uint256)": "0b0c1493",
			"buy(uint256,uint256)": "d6febde8",
			"cancelAsk(uint256)": "1628e0f5",
			"cancelOffer(uint256)": "ef706adf",
			"collections(address)": "43add2e6",
			"createAsk(address,uint256,uint256,address,uint256)": "adba8891",
			"createOffer(address,uint256,uint256,address,uint256)": "c402b965",
			"offers(uint256)": "8a72ea6a",
			"onERC1155BatchReceived(address,address,uint256[],uint256[],bytes)": "bc197c81",
			"onERC1155Received(address,address,uint256,uint256,bytes)": "f23a6e61",
			"owner()": "8da5cb5b",
			"protocolFeePercent()": "d6e6eb9f",
			"protocolFeeRecipient()": "64df049e",
			"renounceOwnership()": "715018a6",
			"setCollection(address,address,uint256)": "dce97c51",
			"setProtocolFeePercent(uint256)": "a4983421",
			"setProtocolFeeRecipient(address)": "e521cb92",
			"supportsInterface(bytes4)": "01ffc9a7",
			"transferOwnership(address)": "f2fde38b"
		}
	},
	"abi": [
		{
			"inputs": [
				{
					"internalType": "address",
					"name": "_feeRecipient",
					"type": "address"
				},
				{
					"internalType": "uint256",
					"name": "_feePercent",
					"type": "uint256"
				}
			],
			"stateMutability": "nonpayable",
			"type": "constructor"
		},
		{
			"inputs": [
				{
					"internalType": "address",
					"name": "target",
					"type": "address"
				}
			],
			"name": "AddressEmptyCode",
			"type": "error"
		},
		{
			"inputs": [
				{
					"internalType": "address",
					"name": "account",
					"type": "address"
				}
			],
			"name": "AddressInsufficientBalance",
			"type": "error"
		},
		{
			"inputs": [],
			"name": "FailedInnerCall",
			"type": "error"
		},
		{
			"inputs": [
				{
					"internalType": "address",
					"name": "owner",
					"type": "address"
				}
			],
			"name": "OwnableInvalidOwner",
			"type": "error"
		},
		{
			"inputs": [
				{
					"internalType": "address",
					"name": "account",
					"type": "address"
				}
			],
			"name": "OwnableUnauthorizedAccount",
			"type": "error"
		},
		{
			"inputs": [
				{
					"internalType": "address",
					"name": "token",
					"type": "address"
				}
			],
			"name": "SafeERC20FailedOperation",
			"type": "error"
		},
		{
			"anonymous": false,
			"inputs": [
				{
					"indexed": false,
					"internalType": "uint256",
					"name": "askId",
					"type": "uint256"
				}
			],
			"name": "AskCancel",
			"type": "event"
		},
		{
			"anonymous": false,
			"inputs": [
				{
					"indexed": false,
					"internalType": "uint256",
					"name": "askId",
					"type": "uint256"
				},
				{
					"indexed": false,
					"internalType": "address",
					"name": "seller",
					"type": "address"
				},
				{
					"indexed": false,
					"internalType": "address",
					"name": "nft",
					"type": "address"
				},
				{
					"indexed": false,
					"internalType": "uint256",
					"name": "tokenId",
					"type": "uint256"
				},
				{
					"indexed": false,
					"internalType": "uint256",
					"name": "quantity",
					"type": "uint256"
				},
				{
					"indexed": false,
					"internalType": "address",
					"name": "quoteToken",
					"type": "address"
				},
				{
					"indexed": false,
					"internalType": "uint256",
					"name": "pricePerUnit",
					"type": "uint256"
				}
			],
			"name": "AskNew",
			"type": "event"
		},
		{
			"anonymous": false,
			"inputs": [
				{
					"indexed": false,
					"internalType": "uint256",
					"name": "askId",
					"type": "uint256"
				},
				{
					"indexed": false,
					"internalType": "address",
					"name": "buyer",
					"type": "address"
				},
				{
					"indexed": false,
					"internalType": "uint256",
					"name": "quantity",
					"type": "uint256"
				},
				{
					"indexed": false,
					"internalType": "uint256",
					"name": "price",
					"type": "uint256"
				},
				{
					"indexed": false,
					"internalType": "uint256",
					"name": "netPrice",
					"type": "uint256"
				}
			],
			"name": "Buy",
			"type": "event"
		},
		{
			"anonymous": false,
			"inputs": [
				{
					"indexed": false,
					"internalType": "address",
					"name": "owner",
					"type": "address"
				},
				{
					"components": [
						{
							"internalType": "uint256",
							"name": "loyaltyFeePercent",
							"type": "uint256"
						},
						{
							"internalType": "address",
							"name": "loyaltyFeeRecipient",
							"type": "address"
						}
					],
					"indexed": false,
					"internalType": "struct ERC721NFTFeeDistributor.Collection",
					"name": "collection",
					"type": "tuple"
				}
			],
			"name": "CollectionUpdated",
			"type": "event"
		},
		{
			"anonymous": false,
			"inputs": [
				{
					"indexed": false,
					"internalType": "uint256",
					"name": "offerId",
					"type": "uint256"
				},
				{
					"indexed": false,
					"internalType": "address",
					"name": "seller",
					"type": "address"
				},
				{
					"indexed": false,
					"internalType": "uint256",
					"name": "quantity",
					"type": "uint256"
				},
				{
					"indexed": false,
					"internalType": "uint256",
					"name": "price",
					"type": "uint256"
				},
				{
					"indexed": false,
					"internalType": "uint256",
					"name": "netPrice",
					"type": "uint256"
				}
			],
			"name": "OfferAccept",
			"type": "event"
		},
		{
			"anonymous": false,
			"inputs": [
				{
					"indexed": false,
					"internalType": "uint256",
					"name": "offerId",
					"type": "uint256"
				}
			],
			"name": "OfferCancel",
			"type": "event"
		},
		{
			"anonymous": false,
			"inputs": [
				{
					"indexed": false,
					"internalType": "uint256",
					"name": "offerId",
					"type": "uint256"
				},
				{
					"indexed": false,
					"internalType": "address",
					"name": "buyer",
					"type": "address"
				},
				{
					"indexed": false,
					"internalType": "address",
					"name": "nft",
					"type": "address"
				},
				{
					"indexed": false,
					"internalType": "uint256",
					"name": "tokenId",
					"type": "uint256"
				},
				{
					"indexed": false,
					"internalType": "uint256",
					"name": "quantity",
					"type": "uint256"
				},
				{
					"indexed": false,
					"internalType": "address",
					"name": "quoteToken",
					"type": "address"
				},
				{
					"indexed": false,
					"internalType": "uint256",
					"name": "pricePerUnit",
					"type": "uint256"
				}
			],
			"name": "OfferNew",
			"type": "event"
		},
		{
			"anonymous": false,
			"inputs": [
				{
					"indexed": true,
					"internalType": "address",
					"name": "previousOwner",
					"type": "address"
				},
				{
					"indexed": true,
					"internalType": "address",
					"name": "newOwner",
					"type": "address"
				}
			],
			"name": "OwnershipTransferred",
			"type": "event"
		},
		{
			"inputs": [],
			"name": "MAX_FEE",
			"outputs": [
				{
					"internalType": "uint256",
					"name": "",
					"type": "uint256"
				}
			],
			"stateMutability": "view",
			"type": "function"
		},
		{
			"inputs": [
				{
					"internalType": "uint256",
					"name": "offerId",
					"type": "uint256"
				},
				{
					"internalType": "uint256",
					"name": "quantity",
					"type": "uint256"
				}
			],
			"name": "acceptOffer",
			"outputs": [],
			"stateMutability": "nonpayable",
			"type": "function"
		},
		{
			"inputs": [
				{
					"internalType": "uint256",
					"name": "",
					"type": "uint256"
				}
			],
			"name": "asks",
			"outputs": [
				{
					"internalType": "address",
					"name": "seller",
					"type": "address"
				},
				{
					"internalType": "address",
					"name": "nft",
					"type": "address"
				},
				{
					"internalType": "uint256",
					"name": "tokenId",
					"type": "uint256"
				},
				{
					"internalType": "uint256",
					"name": "quantity",
					"type": "uint256"
				},
				{
					"internalType": "address",
					"name": "quoteToken",
					"type": "address"
				},
				{
					"internalType": "uint256",
					"name": "pricePerUnit",
					"type": "uint256"
				}
			],
			"stateMutability": "view",
			"type": "function"
		},
		{
			"inputs": [
				{
					"internalType": "uint256",
					"name": "askId",
					"type": "uint256"
				},
				{
					"internalType": "uint256",
					"name": "quantity",
					"type": "uint256"
				}
			],
			"name": "buy",
			"outputs": [],
			"stateMutability": "nonpayable",
			"type": "function"
		},
		{
			"inputs": [
				{
					"internalType": "uint256",
					"name": "askId",
					"type": "uint256"
				}
			],
			"name": "cancelAsk",
			"outputs": [],
			"stateMutability": "nonpayable",
			"type": "function"
		},
		{
			"inputs": [
				{
					"internalType": "uint256",
					"name": "offerId",
					"type": "uint256"
				}
			],
			"name": "cancelOffer",
			"outputs": [],
			"stateMutability": "nonpayable",
			"type": "function"
		},
		{
			"inputs": [
				{
					"internalType": "address",
					"name": "",
					"type": "address"
				}
			],
			"name": "collections",
			"outputs": [
				{
					"internalType": "uint256",
					"name": "loyaltyFeePercent",
					"type": "uint256"
				},
				{
					"internalType": "address",
					"name": "loyaltyFeeRecipient",
					"type": "address"
				}
			],
			"stateMutability": "view",
			"type": "function"
		},
		{
			"inputs": [
				{
					"internalType": "address",
					"name": "_nft",
					"type": "address"
				},
				{
					"internalType": "uint256",
					"name": "_tokenId",
					"type": "uint256"
				},
				{
					"internalType": "uint256",
					"name": "_quantity",
					"type": "uint256"
				},
				{
					"internalType": "address",
					"name": "_quoteToken",
					"type": "address"
				},
				{
					"internalType": "uint256",
					"name": "_pricePerUnit",
					"type": "uint256"
				}
			],
			"name": "createAsk",
			"outputs": [],
			"stateMutability": "nonpayable",
			"type": "function"
		},
		{
			"inputs": [
				{
					"internalType": "address",
					"name": "_nft",
					"type": "address"
				},
				{
					"internalType": "uint256",
					"name": "_tokenId",
					"type": "uint256"
				},
				{
					"internalType": "uint256",
					"name": "_quantity",
					"type": "uint256"
				},
				{
					"internalType": "address",
					"name": "_quoteToken",
					"type": "address"
				},
				{
					"internalType": "uint256",
					"name": "_pricePerUnit",
					"type": "uint256"
				}
			],
			"name": "createOffer",
			"outputs": [],
			"stateMutability": "nonpayable",
			"type": "function"
		},
		{
			"inputs": [
				{
					"internalType": "uint256",
					"name": "",
					"type": "uint256"
				}
			],
			"name": "offers",
			"outputs": [
				{
					"internalType": "address",
					"name": "buyer",
					"type": "address"
				},
				{
					"internalType": "address",
					"name": "nft",
					"type": "address"
				},
				{
					"internalType": "uint256",
					"name": "tokenId",
					"type": "uint256"
				},
				{
					"internalType": "uint256",
					"name": "quantity",
					"type": "uint256"
				},
				{
					"internalType": "address",
					"name": "quoteToken",
					"type": "address"
				},
				{
					"internalType": "uint256",
					"name": "pricePerUnit",
					"type": "uint256"
				}
			],
			"stateMutability": "view",
			"type": "function"
		},
		{
			"inputs": [
				{
					"internalType": "address",
					"name": "",
					"type": "address"
				},
				{
					"internalType": "address",
					"name": "",
					"type": "address"
				},
				{
					"internalType": "uint256[]",
					"name": "",
					"type": "uint256[]"
				},
				{
					"internalType": "uint256[]",
					"name": "",
					"type": "uint256[]"
				},
				{
					"internalType": "bytes",
					"name": "",
					"type": "bytes"
				}
			],
			"name": "onERC1155BatchReceived",
			"outputs": [
				{
					"internalType": "bytes4",
					"name": "",
					"type": "bytes4"
				}
			],
			"stateMutability": "nonpayable",
			"type": "function"
		},
		{
			"inputs": [
				{
					"internalType": "address",
					"name": "",
					"type": "address"
				},
				{
					"internalType": "address",
					"name": "",
					"type": "address"
				},
				{
					"internalType": "uint256",
					"name": "",
					"type": "uint256"
				},
				{
					"internalType": "uint256",
					"name": "",
					"type": "uint256"
				},
				{
					"internalType": "bytes",
					"name": "",
					"type": "bytes"
				}
			],
			"name": "onERC1155Received",
			"outputs": [
				{
					"internalType": "bytes4",
					"name": "",
					"type": "bytes4"
				}
			],
			"stateMutability": "nonpayable",
			"type": "function"
		},
		{
			"inputs": [],
			"name": "owner",
			"outputs": [
				{
					"internalType": "address",
					"name": "",
					"type": "address"
				}
			],
			"stateMutability": "view",
			"type": "function"
		},
		{
			"inputs": [],
			"name": "protocolFeePercent",
			"outputs": [
				{
					"internalType": "uint256",
					"name": "",
					"type": "uint256"
				}
			],
			"stateMutability": "view",
			"type": "function"
		},
		{
			"inputs": [],
			"name": "protocolFeeRecipient",
			"outputs": [
				{
					"internalType": "address",
					"name": "",
					"type": "address"
				}
			],
			"stateMutability": "view",
			"type": "function"
		},
		{
			"inputs": [],
			"name": "renounceOwnership",
			"outputs": [],
			"stateMutability": "nonpayable",
			"type": "function"
		},
		{
			"inputs": [
				{
					"internalType": "address",
					"name": "_nft",
					"type": "address"
				},
				{
					"internalType": "address",
					"name": "_recipient",
					"type": "address"
				},
				{
					"internalType": "uint256",
					"name": "_percent",
					"type": "uint256"
				}
			],
			"name": "setCollection",
			"outputs": [],
			"stateMutability": "nonpayable",
			"type": "function"
		},
		{
			"inputs": [
				{
					"internalType": "uint256",
					"name": "_percent",
					"type": "uint256"
				}
			],
			"name": "setProtocolFeePercent",
			"outputs": [],
			"stateMutability": "nonpayable",
			"type": "function"
		},
		{
			"inputs": [
				{
					"internalType": "address",
					"name": "_recipient",
					"type": "address"
				}
			],
			"name": "setProtocolFeeRecipient",
			"outputs": [],
			"stateMutability": "nonpayable",
			"type": "function"
		},
		{
			"inputs": [
				{
					"internalType": "bytes4",
					"name": "interfaceId",
					"type": "bytes4"
				}
			],
			"name": "supportsInterface",
			"outputs": [
				{
					"internalType": "bool",
					"name": "",
					"type": "bool"
				}
			],
			"stateMutability": "view",
			"type": "function"
		},
		{
			"inputs": [
				{
					"internalType": "address",
					"name": "newOwner",
					"type": "address"
				}
			],
			"name": "transferOwnership",
			"outputs": [],
			"stateMutability": "nonpayable",
			"type": "function"
		}
	]
}