{
    "_format": "hh-sol-artifact-1",
    "contractName": "ERC721NFTMarket",
    "sourceName": "contracts/nft-marketplace/erc721-marketplace/ERC721NFTMarket.sol",
    "abi": [
        {
            "inputs": [
                {
                    "internalType": "address",
                    "name": "_weth",
                    "type": "address"
                },
                {
                    "internalType": "address",
                    "name": "_feeRecipient",
                    "type": "address"
                },
                {
                    "internalType": "uint256",
                    "name": "_feePercent",
                    "type": "uint256"
                }
            ],
            "stateMutability": "nonpayable",
            "type": "constructor"
        },
        {
            "anonymous": false,
            "inputs": [
                {
                    "indexed": true,
                    "internalType": "address",
                    "name": "_seller",
                    "type": "address"
                },
                {
                    "indexed": true,
                    "internalType": "address",
                    "name": "bidder",
                    "type": "address"
                },
                {
                    "indexed": true,
                    "internalType": "address",
                    "name": "_nft",
                    "type": "address"
                },
                {
                    "indexed": false,
                    "internalType": "uint256",
                    "name": "_tokenId",
                    "type": "uint256"
                },
                {
                    "indexed": false,
                    "internalType": "address",
                    "name": "_quoteToken",
                    "type": "address"
                },
                {
                    "indexed": false,
                    "internalType": "uint256",
                    "name": "_price",
                    "type": "uint256"
                },
                {
                    "indexed": false,
                    "internalType": "uint256",
                    "name": "_netPrice",
                    "type": "uint256"
                }
            ],
            "name": "AcceptBid",
            "type": "event"
        },
        {
            "anonymous": false,
            "inputs": [
                {
                    "indexed": true,
                    "internalType": "address",
                    "name": "_seller",
                    "type": "address"
                },
                {
                    "indexed": true,
                    "internalType": "address",
                    "name": "_nft",
                    "type": "address"
                },
                {
                    "indexed": false,
                    "internalType": "uint256",
                    "name": "_tokenId",
                    "type": "uint256"
                }
            ],
            "name": "AskCancel",
            "type": "event"
        },
        {
            "anonymous": false,
            "inputs": [
                {
                    "indexed": true,
                    "internalType": "address",
                    "name": "_seller",
                    "type": "address"
                },
                {
                    "indexed": true,
                    "internalType": "address",
                    "name": "_nft",
                    "type": "address"
                },
                {
                    "indexed": false,
                    "internalType": "uint256",
                    "name": "_tokenId",
                    "type": "uint256"
                },
                {
                    "indexed": false,
                    "internalType": "address",
                    "name": "_quoteToken",
                    "type": "address"
                },
                {
                    "indexed": false,
                    "internalType": "uint256",
                    "name": "_price",
                    "type": "uint256"
                }
            ],
            "name": "AskNew",
            "type": "event"
        },
        {
            "anonymous": false,
            "inputs": [
                {
                    "indexed": true,
                    "internalType": "address",
                    "name": "bidder",
                    "type": "address"
                },
                {
                    "indexed": true,
                    "internalType": "address",
                    "name": "_nft",
                    "type": "address"
                },
                {
                    "indexed": false,
                    "internalType": "uint256",
                    "name": "_tokenId",
                    "type": "uint256"
                },
                {
                    "indexed": false,
                    "internalType": "address",
                    "name": "_quoteToken",
                    "type": "address"
                },
                {
                    "indexed": false,
                    "internalType": "uint256",
                    "name": "_price",
                    "type": "uint256"
                }
            ],
            "name": "Bid",
            "type": "event"
        },
        {
            "anonymous": false,
            "inputs": [
                {
                    "indexed": true,
                    "internalType": "address",
                    "name": "bidder",
                    "type": "address"
                },
                {
                    "indexed": true,
                    "internalType": "address",
                    "name": "_nft",
                    "type": "address"
                },
                {
                    "indexed": false,
                    "internalType": "uint256",
                    "name": "_tokenId",
                    "type": "uint256"
                }
            ],
            "name": "CancelBid",
            "type": "event"
        },
        {
            "anonymous": false,
            "inputs": [
                {
                    "indexed": true,
                    "internalType": "address",
                    "name": "collection",
                    "type": "address"
                }
            ],
            "name": "CloseCollection",
            "type": "event"
        },
        {
            "anonymous": false,
            "inputs": [
                {
                    "indexed": true,
                    "internalType": "address",
                    "name": "collection",
                    "type": "address"
                },
                {
                    "indexed": false,
                    "internalType": "uint256",
                    "name": "creatorFee",
                    "type": "uint256"
                },
                {
                    "indexed": false,
                    "internalType": "address",
                    "name": "creator",
                    "type": "address"
                }
            ],
            "name": "ModifyCollection",
            "type": "event"
        },
        {
            "anonymous": false,
            "inputs": [
                {
                    "indexed": true,
                    "internalType": "address",
                    "name": "collection",
                    "type": "address"
                },
                {
                    "indexed": false,
                    "internalType": "uint256",
                    "name": "creatorFee",
                    "type": "uint256"
                },
                {
                    "indexed": false,
                    "internalType": "address",
                    "name": "creator",
                    "type": "address"
                }
            ],
            "name": "NewCollection",
            "type": "event"
        },
        {
            "anonymous": false,
            "inputs": [
                {
                    "indexed": true,
                    "internalType": "address",
                    "name": "previousOwner",
                    "type": "address"
                },
                {
                    "indexed": true,
                    "internalType": "address",
                    "name": "newOwner",
                    "type": "address"
                }
            ],
            "name": "OwnershipTransferred",
            "type": "event"
        },
        {
            "anonymous": false,
            "inputs": [
                {
                    "indexed": true,
                    "internalType": "address",
                    "name": "_seller",
                    "type": "address"
                },
                {
                    "indexed": true,
                    "internalType": "address",
                    "name": "buyer",
                    "type": "address"
                },
                {
                    "indexed": true,
                    "internalType": "address",
                    "name": "_nft",
                    "type": "address"
                },
                {
                    "indexed": false,
                    "internalType": "uint256",
                    "name": "_tokenId",
                    "type": "uint256"
                },
                {
                    "indexed": false,
                    "internalType": "address",
                    "name": "_quoteToken",
                    "type": "address"
                },
                {
                    "indexed": false,
                    "internalType": "uint256",
                    "name": "_price",
                    "type": "uint256"
                },
                {
                    "indexed": false,
                    "internalType": "uint256",
                    "name": "_netPrice",
                    "type": "uint256"
                }
            ],
            "name": "Trade",
            "type": "event"
        },
        {
            "inputs": [],
            "name": "MAX_FEE",
            "outputs": [
                {
                    "internalType": "uint256",
                    "name": "",
                    "type": "uint256"
                }
            ],
            "stateMutability": "view",
            "type": "function"
        },
        {
            "inputs": [],
            "name": "MarketName",
            "outputs": [
                {
                    "internalType": "string",
                    "name": "",
                    "type": "string"
                }
            ],
            "stateMutability": "view",
            "type": "function"
        },
        {
            "inputs": [],
            "name": "WETH",
            "outputs": [
                {
                    "internalType": "address",
                    "name": "",
                    "type": "address"
                }
            ],
            "stateMutability": "view",
            "type": "function"
        },
        {
            "inputs": [
                {
                    "internalType": "address",
                    "name": "_nft",
                    "type": "address"
                },
                {
                    "internalType": "uint256",
                    "name": "_tokenId",
                    "type": "uint256"
                },
                {
                    "internalType": "address",
                    "name": "_bidder",
                    "type": "address"
                },
                {
                    "internalType": "address",
                    "name": "_quoteToken",
                    "type": "address"
                },
                {
                    "internalType": "uint256",
                    "name": "_price",
                    "type": "uint256"
                }
            ],
            "name": "acceptBid",
            "outputs": [],
            "stateMutability": "nonpayable",
            "type": "function"
        },
        {
            "inputs": [
                {
                    "internalType": "address",
                    "name": "",
                    "type": "address"
                },
                {
                    "internalType": "uint256",
                    "name": "",
                    "type": "uint256"
                }
            ],
            "name": "asks",
            "outputs": [
                {
                    "internalType": "address",
                    "name": "seller",
                    "type": "address"
                },
                {
                    "internalType": "address",
                    "name": "quoteToken",
                    "type": "address"
                },
                {
                    "internalType": "uint256",
                    "name": "price",
                    "type": "uint256"
                }
            ],
            "stateMutability": "view",
            "type": "function"
        },
        {
            "inputs": [
                {
                    "internalType": "address",
                    "name": "",
                    "type": "address"
                },
                {
                    "internalType": "uint256",
                    "name": "",
                    "type": "uint256"
                },
                {
                    "internalType": "address",
                    "name": "",
                    "type": "address"
                }
            ],
            "name": "bids",
            "outputs": [
                {
                    "internalType": "address",
                    "name": "quoteToken",
                    "type": "address"
                },
                {
                    "internalType": "uint256",
                    "name": "price",
                    "type": "uint256"
                }
            ],
            "stateMutability": "view",
            "type": "function"
        },
        {
            "inputs": [
                {
                    "internalType": "address",
                    "name": "_nft",
                    "type": "address"
                },
                {
                    "internalType": "uint256",
                    "name": "_tokenId",
                    "type": "uint256"
                },
                {
                    "internalType": "address",
                    "name": "_quoteToken",
                    "type": "address"
                },
                {
                    "internalType": "uint256",
                    "name": "_price",
                    "type": "uint256"
                }
            ],
            "name": "buy",
            "outputs": [],
            "stateMutability": "nonpayable",
            "type": "function"
        },
        {
            "inputs": [
                {
                    "internalType": "address",
                    "name": "_nft",
                    "type": "address"
                },
                {
                    "internalType": "uint256",
                    "name": "_tokenId",
                    "type": "uint256"
                }
            ],
            "name": "buyUsingNative",
            "outputs": [],
            "stateMutability": "payable",
            "type": "function"
        },
        {
            "inputs": [
                {
                    "internalType": "address",
                    "name": "_nft",
                    "type": "address"
                },
                {
                    "internalType": "uint256",
                    "name": "_tokenId",
                    "type": "uint256"
                }
            ],
            "name": "cancelAsk",
            "outputs": [],
            "stateMutability": "nonpayable",
            "type": "function"
        },
        {
            "inputs": [
                {
                    "internalType": "address",
                    "name": "_nft",
                    "type": "address"
                },
                {
                    "internalType": "uint256",
                    "name": "_tokenId",
                    "type": "uint256"
                }
            ],
            "name": "cancelBid",
            "outputs": [],
            "stateMutability": "nonpayable",
            "type": "function"
        },
        {
            "inputs": [
                {
                    "internalType": "address",
                    "name": "_collection",
                    "type": "address"
                }
            ],
            "name": "closeCollection",
            "outputs": [],
            "stateMutability": "nonpayable",
            "type": "function"
        },
        {
            "inputs": [
                {
                    "internalType": "address",
                    "name": "",
                    "type": "address"
                }
            ],
            "name": "collections",
            "outputs": [
                {
                    "internalType": "enum ERC721NFTCollectionManager.CollectionStatus",
                    "name": "status",
                    "type": "uint8"
                },
                {
                    "internalType": "uint256",
                    "name": "creatorFee",
                    "type": "uint256"
                },
                {
                    "internalType": "address",
                    "name": "creator",
                    "type": "address"
                }
            ],
            "stateMutability": "view",
            "type": "function"
        },
        {
            "inputs": [
                {
                    "internalType": "address",
                    "name": "_nft",
                    "type": "address"
                },
                {
                    "internalType": "uint256",
                    "name": "_tokenId",
                    "type": "uint256"
                },
                {
                    "internalType": "address",
                    "name": "_quoteToken",
                    "type": "address"
                },
                {
                    "internalType": "uint256",
                    "name": "_price",
                    "type": "uint256"
                }
            ],
            "name": "createAsk",
            "outputs": [],
            "stateMutability": "nonpayable",
            "type": "function"
        },
        {
            "inputs": [
                {
                    "internalType": "address",
                    "name": "_nft",
                    "type": "address"
                },
                {
                    "internalType": "uint256",
                    "name": "_tokenId",
                    "type": "uint256"
                },
                {
                    "internalType": "address",
                    "name": "_quoteToken",
                    "type": "address"
                },
                {
                    "internalType": "uint256",
                    "name": "_price",
                    "type": "uint256"
                }
            ],
            "name": "createBid",
            "outputs": [],
            "stateMutability": "nonpayable",
            "type": "function"
        },
        {
            "inputs": [
                {
                    "internalType": "address",
                    "name": "_nft",
                    "type": "address"
                },
                {
                    "internalType": "uint256",
                    "name": "_tokenId",
                    "type": "uint256"
                }
            ],
            "name": "createBidUsingNative",
            "outputs": [],
            "stateMutability": "payable",
            "type": "function"
        },
        {
            "inputs": [
                {
                    "internalType": "address",
                    "name": "_collection",
                    "type": "address"
                },
                {
                    "internalType": "address",
                    "name": "_creator",
                    "type": "address"
                },
                {
                    "internalType": "uint256",
                    "name": "_creatorFee",
                    "type": "uint256"
                }
            ],
            "name": "modifyCollection",
            "outputs": [],
            "stateMutability": "nonpayable",
            "type": "function"
        },
        {
            "inputs": [],
            "name": "name",
            "outputs": [
                {
                    "internalType": "string",
                    "name": "",
                    "type": "string"
                }
            ],
            "stateMutability": "view",
            "type": "function"
        },
        {
            "inputs": [
                {
                    "internalType": "address",
                    "name": "_collection",
                    "type": "address"
                },
                {
                    "internalType": "address",
                    "name": "_creator",
                    "type": "address"
                },
                {
                    "internalType": "uint256",
                    "name": "_creatorFee",
                    "type": "uint256"
                }
            ],
            "name": "newCollection",
            "outputs": [],
            "stateMutability": "nonpayable",
            "type": "function"
        },
        {
            "inputs": [
                {
                    "internalType": "address",
                    "name": "",
                    "type": "address"
                },
                {
                    "internalType": "address",
                    "name": "",
                    "type": "address"
                },
                {
                    "internalType": "uint256",
                    "name": "",
                    "type": "uint256"
                },
                {
                    "internalType": "bytes",
                    "name": "",
                    "type": "bytes"
                }
            ],
            "name": "onERC721Received",
            "outputs": [
                {
                    "internalType": "bytes4",
                    "name": "",
                    "type": "bytes4"
                }
            ],
            "stateMutability": "nonpayable",
            "type": "function"
        },
        {
            "inputs": [],
            "name": "owner",
            "outputs": [
                {
                    "internalType": "address",
                    "name": "",
                    "type": "address"
                }
            ],
            "stateMutability": "view",
            "type": "function"
        },
        {
            "inputs": [],
            "name": "protocolFeePercent",
            "outputs": [
                {
                    "internalType": "uint256",
                    "name": "",
                    "type": "uint256"
                }
            ],
            "stateMutability": "view",
            "type": "function"
        },
        {
            "inputs": [],
            "name": "protocolFeeRecipient",
            "outputs": [
                {
                    "internalType": "address",
                    "name": "",
                    "type": "address"
                }
            ],
            "stateMutability": "view",
            "type": "function"
        },
        {
            "inputs": [],
            "name": "renounceOwnership",
            "outputs": [],
            "stateMutability": "nonpayable",
            "type": "function"
        },
        {
            "inputs": [
                {
                    "internalType": "uint256",
                    "name": "_percent",
                    "type": "uint256"
                }
            ],
            "name": "setProtocolFeePercent",
            "outputs": [],
            "stateMutability": "nonpayable",
            "type": "function"
        },
        {
            "inputs": [
                {
                    "internalType": "address",
                    "name": "_recipient",
                    "type": "address"
                }
            ],
            "name": "setProtocolFeeRecipient",
            "outputs": [],
            "stateMutability": "nonpayable",
            "type": "function"
        },
        {
            "inputs": [
                {
                    "internalType": "address",
                    "name": "newOwner",
                    "type": "address"
                }
            ],
            "name": "transferOwnership",
            "outputs": [],
            "stateMutability": "nonpayable",
            "type": "function"
        },
        {
            "inputs": [
                {
                    "internalType": "address",
                    "name": "_collection",
                    "type": "address"
                },
                {
                    "internalType": "uint256",
                    "name": "_cursor",
                    "type": "uint256"
                },
                {
                    "internalType": "uint256",
                    "name": "_size",
                    "type": "uint256"
                }
            ],
            "name": "viewAsksByCollection",
            "outputs": [
                {
                    "internalType": "uint256[]",
                    "name": "tokenIds",
                    "type": "uint256[]"
                },
                {
                    "components": [
                        {
                            "internalType": "address",
                            "name": "seller",
                            "type": "address"
                        },
                        {
                            "internalType": "address",
                            "name": "quoteToken",
                            "type": "address"
                        },
                        {
                            "internalType": "uint256",
                            "name": "price",
                            "type": "uint256"
                        }
                    ],
                    "internalType": "struct ERC721NFTMarket.Ask[]",
                    "name": "askInfo",
                    "type": "tuple[]"
                },
                {
                    "internalType": "uint256",
                    "name": "",
                    "type": "uint256"
                }
            ],
            "stateMutability": "view",
            "type": "function"
        },
        {
            "inputs": [
                {
                    "internalType": "address",
                    "name": "_collection",
                    "type": "address"
                },
                {
                    "internalType": "uint256[]",
                    "name": "_tokenIds",
                    "type": "uint256[]"
                }
            ],
            "name": "viewAsksByCollectionAndTokenIds",
            "outputs": [
                {
                    "internalType": "bool[]",
                    "name": "statuses",
                    "type": "bool[]"
                },
                {
                    "components": [
                        {
                            "internalType": "address",
                            "name": "seller",
                            "type": "address"
                        },
                        {
                            "internalType": "address",
                            "name": "quoteToken",
                            "type": "address"
                        },
                        {
                            "internalType": "uint256",
                            "name": "price",
                            "type": "uint256"
                        }
                    ],
                    "internalType": "struct ERC721NFTMarket.Ask[]",
                    "name": "askInfo",
                    "type": "tuple[]"
                }
            ],
            "stateMutability": "view",
            "type": "function"
        },
        {
            "inputs": [
                {
                    "internalType": "uint256",
                    "name": "cursor",
                    "type": "uint256"
                },
                {
                    "internalType": "uint256",
                    "name": "size",
                    "type": "uint256"
                }
            ],
            "name": "viewCollections",
            "outputs": [
                {
                    "internalType": "address[]",
                    "name": "collectionAddresses",
                    "type": "address[]"
                },
                {
                    "components": [
                        {
                            "internalType": "enum ERC721NFTCollectionManager.CollectionStatus",
                            "name": "status",
                            "type": "uint8"
                        },
                        {
                            "internalType": "uint256",
                            "name": "creatorFee",
                            "type": "uint256"
                        },
                        {
                            "internalType": "address",
                            "name": "creator",
                            "type": "address"
                        }
                    ],
                    "internalType": "struct ERC721NFTCollectionManager.Collection[]",
                    "name": "collectionDetails",
                    "type": "tuple[]"
                },
                {
                    "internalType": "uint256",
                    "name": "",
                    "type": "uint256"
                }
            ],
            "stateMutability": "view",
            "type": "function"
        }
    ],
    "bytecode": "0x60a060405260fa6003556101f46005553480156200001c57600080fd5b5060405162003752380380620037528339810160408190526200003f91620001da565b81816200004c33620000c7565b60018055600280546001600160a01b0319166001600160a01b039390931692909217909155600355606083901b6001600160601b03191660805260408051808201909152600e8082526d7532756d61726b6574706c61636560901b6020909201918252620000bd9160099162000117565b5050505062000258565b600080546001600160a01b038381166001600160a01b0319831681178455604051919092169283917f8be0079c531659141344cd1fd0a4f28419497f9722a3daafe3b4186f6b6457e09190a35050565b82805462000125906200021b565b90600052602060002090601f01602090048101928262000149576000855562000194565b82601f106200016457805160ff191683800117855562000194565b8280016001018555821562000194579182015b828111156200019457825182559160200191906001019062000177565b50620001a2929150620001a6565b5090565b5b80821115620001a25760008155600101620001a7565b80516001600160a01b0381168114620001d557600080fd5b919050565b600080600060608486031215620001f057600080fd5b620001fb84620001bd565b92506200020b60208501620001bd565b9150604084015190509250925092565b600181811c908216806200023057607f821691505b602082108114156200025257634e487b7160e01b600052602260045260246000fd5b50919050565b60805160601c6134bf62000293600039600081816104750152818161173f015281816117b801528181611d3c0152611db501526134bf6000f3fe6080604052600436106101c15760003560e01c80638da5cb5b116100f7578063d6e6eb9f11610095578063e521cb9211610064578063e521cb9214610604578063e80fbc9014610624578063f2fde38b14610637578063f375ceab1461065757600080fd5b8063d6e6eb9f146104fb578063dd76892214610511578063e22d4f7d14610581578063e4ce1806146105e457600080fd5b8063ad5c4648116100d1578063ad5c464814610463578063b3ffb76014610497578063bc063e1a146104b7578063bd3a27b0146104db57600080fd5b80638da5cb5b146104125780639e7dfc7b14610430578063a49834211461044357600080fd5b806340b807461161016457806364df049e1161013e57806364df049e146103765780636fa92cb8146103ae578063715018a6146103ce57806384a40864146103e357600080fd5b806340b80746146102cf57806343add2e6146102ef57806351c383ea1461034757600080fd5b80632055c668116101a05780632055c6681461024c57806322f67b6d1461026157806332796c7d1461028f57806339b6b1e5146102af57600080fd5b80626795d5146101c657806306fdde03146101e8578063150b7a0214610213575b600080fd5b3480156101d257600080fd5b506101e66101e1366004612ca9565b610677565b005b3480156101f457600080fd5b506101fd6108ce565b60405161020a9190612d19565b60405180910390f35b34801561021f57600080fd5b5061023361022e366004612d62565b61095c565b6040516001600160e01b0319909116815260200161020a565b34801561025857600080fd5b506101fd61096d565b34801561026d57600080fd5b5061028161027c366004612e3e565b6109ff565b60405161020a929190612f21565b34801561029b57600080fd5b506101e66102aa366004612f7a565b610bf8565b3480156102bb57600080fd5b506101e66102ca366004612f95565b610cd1565b3480156102db57600080fd5b506101e66102ea366004612f95565b610cf0565b3480156102fb57600080fd5b5061033861030a366004612f7a565b60066020526000908152604090208054600182015460029092015460ff90911691906001600160a01b031683565b60405161020a93929190612ff7565b34801561035357600080fd5b50610367610362366004613024565b610e61565b60405161020a93929190613046565b34801561038257600080fd5b50600254610396906001600160a01b031681565b6040516001600160a01b03909116815260200161020a565b3480156103ba57600080fd5b506101e66103c93660046130f9565b611074565b3480156103da57600080fd5b506101e66113f4565b3480156103ef57600080fd5b506104036103fe36600461314e565b611408565b60405161020a93929190613181565b34801561041e57600080fd5b506000546001600160a01b0316610396565b6101e661043e366004612f95565b611644565b34801561044f57600080fd5b506101e661045e3660046131e0565b6117e7565b34801561046f57600080fd5b506103967f000000000000000000000000000000000000000000000000000000000000000081565b3480156104a357600080fd5b506101e66104b2366004612ca9565b611830565b3480156104c357600080fd5b506104cd60055481565b60405190815260200161020a565b3480156104e757600080fd5b506101e66104f6366004612ca9565b611953565b34801561050757600080fd5b506104cd60035481565b34801561051d57600080fd5b5061056261052c3660046131f9565b600c602090815260009384526040808520825292845282842090528252902080546001909101546001600160a01b039091169082565b604080516001600160a01b03909316835260208301919091520161020a565b34801561058d57600080fd5b506105d561059c366004612f95565b600a6020908152600092835260408084209091529082529020805460018201546002909201546001600160a01b03918216929091169083565b60405161020a93929190613235565b3480156105f057600080fd5b506101e66105ff366004613259565b6119fb565b34801561061057600080fd5b506101e661061f366004612f7a565b611c16565b6101e6610632366004612f95565b611ca7565b34801561064357600080fd5b506101e6610652366004612f7a565b611dda565b34801561066357600080fd5b506101e6610672366004613259565b611e53565b61067f61210a565b333b156106a75760405162461bcd60e51b815260040161069e90613295565b60405180910390fd5b3332146106c65760405162461bcd60e51b815260040161069e906132c3565b8360006001600160a01b03821660009081526006602052604090205460ff1660018111156106f6576106f6612fbf565b146107135760405162461bcd60e51b815260040161069e906132fa565b6000821161076f5760405162461bcd60e51b8152602060048201526024808201527f41736b3a205072696365206d7573742062652067726561746572207468616e206044820152637a65726f60e01b606482015260840161069e565b604051632142170760e11b81526001600160a01b038616906342842e0e9061079f90339030908990600401613235565b600060405180830381600087803b1580156107b957600080fd5b505af11580156107cd573d6000803e3d6000fd5b5050505060405180606001604052806107e33390565b6001600160a01b03908116825285811660208084019190915260409283018690528882166000818152600a83528481208a82528352848120865181549086166001600160a01b0319918216178255878501516001830180549190971691161790945594840151600290930192909255908352600b905290206108659085612164565b506001600160a01b03851633604080518781526001600160a01b0387811660208301529181018690529116907f9a334381123a2a5affb4d69737ab464025dee3156576bab65294d6b7e9d49dec9060600160405180910390a3506108c860018055565b50505050565b600980546108db9061333c565b80601f01602080910402602001604051908101604052809291908181526020018280546109079061333c565b80156109545780601f1061092957610100808354040283529160200191610954565b820191906000526020600020905b81548152906001019060200180831161093757829003601f168201915b505050505081565b630a85bd0160e11b5b949350505050565b60606009805461097c9061333c565b80601f01602080910402602001604051908101604052809291908181526020018280546109a89061333c565b80156109f55780601f106109ca576101008083540402835291602001916109f5565b820191906000526020600020905b8154815290600101906020018083116109d857829003601f168201915b5050505050905090565b606080828067ffffffffffffffff811115610a1c57610a1c612d4c565b604051908082528060200260200182016040528015610a45578160200160208202803683370190505b5092508067ffffffffffffffff811115610a6157610a61612d4c565b604051908082528060200260200182016040528015610aac57816020015b6040805160608101825260008082526020808301829052928201528252600019909201910181610a7f5790505b50915060005b81811015610bee57610af6868683818110610acf57610acf613377565b6001600160a01b038b166000908152600b6020908152604090912093910201359050612179565b15610b24576001848281518110610b0f57610b0f613377565b91151560209283029190910190910152610b49565b6000848281518110610b3857610b38613377565b911515602092830291909101909101525b6001600160a01b0387166000908152600a6020526040812090878784818110610b7457610b74613377565b60209081029290920135835250818101929092526040908101600020815160608101835281546001600160a01b0390811682526001830154169381019390935260020154908201528351849083908110610bd057610bd0613377565b60200260200101819052508080610be6906133a3565b915050610ab2565b5050935093915050565b610c00612191565b610c0b6007826121eb565b610c6b5760405162461bcd60e51b815260206004820152602b60248201527f436c6f736520636f6c6c656374696f6e3a2074686520636f6c6c656374696f6e60448201526a081b9bdd081b1a5cdd195960aa1b606482015260840161069e565b6001600160a01b0381166000908152600660205260409020805460ff19166001179055610c9960078261220d565b506040516001600160a01b038216907f9b484b84384aae1cfcf87460de468e0e38dca97450aca6f5ba47e529293a75ab90600090a250565b610cd961210a565b610ce38282612222565b610cec60018055565b5050565b610cf861210a565b6001600160a01b038281166000908152600a60209081526040808320858452909152902054163314610d5f5760405162461bcd60e51b815260206004820152601060248201526f20b9b59d1037b7363c9039b2b63632b960811b604482015260640161069e565b604051632142170760e11b81526001600160a01b038316906342842e0e90610d8f90309033908690600401613235565b600060405180830381600087803b158015610da957600080fd5b505af1158015610dbd573d6000803e3d6000fd5b5050506001600160a01b0383166000818152600a60209081526040808320868452825280832080546001600160a01b031990811682556001820180549091169055600201839055928252600b905220610e1791508261233d565b506040518181526001600160a01b0383169033907fa5764ea233325154a6388255c54b9f302ec2ed8586af0a9a606cd64e88298eb79060200160405180910390a3610cec60018055565b60608060008385610e726007612349565b610e7c91906133be565b811115610e9b5785610e8e6007612349565b610e9891906133be565b90505b8067ffffffffffffffff811115610eb457610eb4612d4c565b604051908082528060200260200182016040528015610edd578160200160208202803683370190505b5093508067ffffffffffffffff811115610ef957610ef9612d4c565b604051908082528060200260200182016040528015610f4457816020015b6040805160608101825260008082526020808301829052928201528252600019909201910181610f175790505b50925060005b8181101561105957610f67610f5f82896133d5565b600790612353565b858281518110610f7957610f79613377565b60200260200101906001600160a01b031690816001600160a01b03168152505060066000868381518110610faf57610faf613377565b6020908102919091018101516001600160a01b0316825281019190915260409081016000208151606081019092528054829060ff166001811115610ff557610ff5612fbf565b600181111561100657611006612fbf565b8152600182015460208201526002909101546001600160a01b0316604090910152845185908390811061103b5761103b613377565b60200260200101819052508080611051906133a3565b915050610f4a565b50838361106683896133d5565b935093509350509250925092565b61107c61210a565b8460006001600160a01b03821660009081526006602052604090205460ff1660018111156110ac576110ac612fbf565b146110c95760405162461bcd60e51b815260040161069e906132fa565b6001600160a01b038087166000908152600c60209081526040808320898452825280832088851684528252918290208251808401909352805490931682526001909201549181018290529083146111625760405162461bcd60e51b815260206004820152601860248201527f4163636570744269643a20696e76616c69642070726963650000000000000000604482015260640161069e565b836001600160a01b031681600001516001600160a01b0316146111c75760405162461bcd60e51b815260206004820152601d60248201527f4163636570744269643a20696e76616c69642071756f7465546f6b656e000000604482015260640161069e565b6001600160a01b038781166000908152600a602090815260408083208a8452909152902054163381141561125c57604051632142170760e11b81526001600160a01b038916906342842e0e906112259030908a908c90600401613235565b600060405180830381600087803b15801561123f57600080fd5b505af1158015611253573d6000803e3d6000fd5b505050506112c2565b50604051632142170760e11b815233906001600160a01b038916906342842e0e9061128f9084908a908c90600401613235565b600060405180830381600087803b1580156112a957600080fd5b505af11580156112bd573d6000803e3d6000fd5b505050505b60006112cf89878761235f565b905060006112dd8683612493565b90506112f36001600160a01b038816848361249f565b6001600160a01b038a166000818152600a602090815260408083208d8452825280832080546001600160a01b031990811682556001820180549091169055600201839055928252600b905220611349908a61233d565b506001600160a01b038a81166000818152600c602090815260408083208e845282528083208d861680855290835281842080546001600160a01b03191681556001019390935580518e81528c86169281019290925281018a90526060810185905291929091908616907f110ad5be64e5fef5d8a9433938fccf79b5b6623af1a17f0990815ed076abdb589060800160405180910390a450505050506113ed60018055565b5050505050565b6113fc612191565b6114066000612507565b565b6001600160a01b0383166000908152600b6020526040812060609182918490869061143290612349565b61143c91906133be565b811115611473576001600160a01b0387166000908152600b60205260409020869061146690612349565b61147091906133be565b90505b8067ffffffffffffffff81111561148c5761148c612d4c565b6040519080825280602002602001820160405280156114b5578160200160208202803683370190505b5093508067ffffffffffffffff8111156114d1576114d1612d4c565b60405190808252806020026020018201604052801561151c57816020015b60408051606081018252600080825260208083018290529282015282526000199092019101816114ef5790505b50925060005b818110156116275761155561153782896133d5565b6001600160a01b038a166000908152600b6020526040902090612353565b85828151811061156757611567613377565b602002602001018181525050600a6000896001600160a01b03166001600160a01b0316815260200190815260200160002060008683815181106115ac576115ac613377565b6020908102919091018101518252818101929092526040908101600020815160608101835281546001600160a01b039081168252600183015416938101939093526002015490820152845185908390811061160957611609613377565b6020026020010181905250808061161f906133a3565b915050611522565b50838361163483896133d5565b9350935093505093509350939050565b61164c61210a565b333b1561166b5760405162461bcd60e51b815260040161069e90613295565b33321461168a5760405162461bcd60e51b815260040161069e906132c3565b8160006001600160a01b03821660009081526006602052604090205460ff1660018111156116ba576116ba612fbf565b146116d75760405162461bcd60e51b815260040161069e906132fa565b6001600160a01b038381166000908152600a602090815260408083208684529091529020541661173d5760405162461bcd60e51b81526020600482015260116024820152701d1bdad95b881a5cc81b9bdd081cd95b1b607a1b604482015260640161069e565b7f00000000000000000000000000000000000000000000000000000000000000006001600160a01b031663d0e30db0346040518263ffffffff1660e01b81526004016000604051808303818588803b15801561179857600080fd5b505af11580156117ac573d6000803e3d6000fd5b50505050506117dd83837f000000000000000000000000000000000000000000000000000000000000000034612557565b50610cec60018055565b6117ef612191565b60055481111561182b5760405162461bcd60e51b81526020600482015260076024820152666d61785f66656560c81b604482015260640161069e565b600355565b333b1561184f5760405162461bcd60e51b815260040161069e90613295565b33321461186e5760405162461bcd60e51b815260040161069e906132c3565b61187661210a565b8360006001600160a01b03821660009081526006602052604090205460ff1660018111156118a6576118a6612fbf565b146118c35760405162461bcd60e51b815260040161069e906132fa565b6001600160a01b0385166000908152600b602052604090206118e59085612179565b6119265760405162461bcd60e51b81526020600482015260126024820152711d1bdad95b881dd85cc81b9bdd081cd95b1b60721b604482015260640161069e565b61193d335b6001600160a01b038516903085612791565b61194985858585612557565b506108c860018055565b333b156119725760405162461bcd60e51b815260040161069e90613295565b3332146119915760405162461bcd60e51b815260040161069e906132c3565b61199961210a565b8360006001600160a01b03821660009081526006602052604090205460ff1660018111156119c9576119c9612fbf565b146119e65760405162461bcd60e51b815260040161069e906132fa565b6119ef3361192b565b611949858585856127b2565b611a03612191565b6001600160a01b03831660009081526006602052604081205460ff166001811115611a3057611a30612fbf565b14611a905760405162461bcd60e51b815260206004820152602a60248201527f4d6f6469667920636f6c6c656374696f6e3a207468652073746174757320776160448201526939903737ba1037b832b760b11b606482015260840161069e565b611a9b6007846121eb565b611afc5760405162461bcd60e51b815260206004820152602c60248201527f4d6f6469667920636f6c6c656374696f6e3a2074686520636f6c6c656374696f60448201526b1b881b9bdd081b1a5cdd195960a21b606482015260840161069e565b600554811115611b4e5760405162461bcd60e51b815260206004820152601a60248201527f4d6f6469667920636f6c6c656374696f6e3a206d61785f666565000000000000604482015260640161069e565b60408051606081018252600080825260208083018590526001600160a01b038681168486015287168252600690529190912081518154829060ff191660018381811115611b9d57611b9d612fbf565b02179055506020828101516001830155604092830151600290920180546001600160a01b0319166001600160a01b03938416179055825184815285831691810191909152908516917f6e3b53943b1a25c1f026d78d5ca41ca93327767504df7be6bfeada1660989d9891015b60405180910390a2505050565b611c1e612191565b6001600160a01b038116611c855760405162461bcd60e51b815260206004820152602860248201527f4552433732314e4654436f6c6c656374696f6e4d616e616765723a207a65726f604482015267206164647265737360c01b606482015260840161069e565b600280546001600160a01b0319166001600160a01b0392909216919091179055565b333b15611cc65760405162461bcd60e51b815260040161069e90613295565b333214611ce55760405162461bcd60e51b815260040161069e906132c3565b611ced61210a565b8160006001600160a01b03821660009081526006602052604090205460ff166001811115611d1d57611d1d612fbf565b14611d3a5760405162461bcd60e51b815260040161069e906132fa565b7f00000000000000000000000000000000000000000000000000000000000000006001600160a01b031663d0e30db0346040518263ffffffff1660e01b81526004016000604051808303818588803b158015611d9557600080fd5b505af1158015611da9573d6000803e3d6000fd5b50505050506117dd83837f0000000000000000000000000000000000000000000000000000000000000000346127b2565b611de2612191565b6001600160a01b038116611e475760405162461bcd60e51b815260206004820152602660248201527f4f776e61626c653a206e6577206f776e657220697320746865207a65726f206160448201526564647265737360d01b606482015260840161069e565b611e5081612507565b50565b611e5b612191565b600554811115611ead5760405162461bcd60e51b815260206004820152601760248201527f4e657720636f6c6c656374696f6e3a206d61785f666565000000000000000000604482015260640161069e565b6001600160a01b038316611f035760405162461bcd60e51b815260206004820152601c60248201527f4e657720636f6c6c656374696f6e3a207a65726f206164647265737300000000604482015260640161069e565b611f0e6007846121eb565b611f6c5760405162461bcd60e51b815260206004820152602960248201527f4e657720636f6c6c656374696f6e3a20636f6c6c656374696f6e20616c726561604482015268191e481b1a5cdd195960ba1b606482015260840161069e565b6040516301ffc9a760e01b81526380ac58cd60e01b60048201526001600160a01b038416906301ffc9a79060240160206040518083038186803b158015611fb257600080fd5b505afa158015611fc6573d6000803e3d6000fd5b505050506040513d601f19601f82011682018060405250810190611fea91906133ed565b6120365760405162461bcd60e51b815260206004820152601a60248201527f4e657720636f6c6c656374696f6e3a204e6f7420455243373231000000000000604482015260640161069e565b60408051606081018252600080825260208083018590526001600160a01b038681168486015287168252600690529190912081518154829060ff19166001838181111561208557612085612fbf565b021790555060208201516001820155604090910151600290910180546001600160a01b0319166001600160a01b039092169190911790556120c76007846128f7565b50604080518281526001600160a01b0384811660208301528516917f3d29e008d3c3ac1e8e834e55c2f088c20d73040d0a033b09e10de9193ed771199101611c09565b6002600154141561215d5760405162461bcd60e51b815260206004820152601f60248201527f5265656e7472616e637947756172643a207265656e7472616e742063616c6c00604482015260640161069e565b6002600155565b60006121708383612908565b90505b92915050565b60008181526001830160205260408120541515612170565b6000546001600160a01b031633146114065760405162461bcd60e51b815260206004820181905260248201527f4f776e61626c653a2063616c6c6572206973206e6f7420746865206f776e6572604482015260640161069e565b6001600160a01b03811660009081526001830160205260408120541515612170565b6000612170836001600160a01b038416612957565b6001600160a01b038281166000908152600c602090815260408083208584528252808320338452825291829020825180840190935280549093168252600190920154918101829052906122ac5760405162461bcd60e51b8152602060048201526012602482015271109a590e88189a59081b9bdd08199bdd5b9960721b604482015260640161069e565b6122c733602083015183516001600160a01b0316919061249f565b6001600160a01b0383166000818152600c6020908152604080832086845282528083203380855290835281842080546001600160a01b031916815560010193909355518581527fbd3087862a2ef6b9693b39cf415bf0c5ebd9238566d9b2778d3b1cee2c76ef9a910160405180910390a3505050565b60006121708383612957565b6000612173825490565b60006121708383612a4a565b600254600090819081906001600160a01b0316156123c25761239861271061239260035487612a7490919063ffffffff16565b90612a80565b6002549092506123b5906001600160a01b0387811691168461249f565b6123bf8183612a8c565b90505b6001600160a01b0386166000908152600660205260408082208151606081019092528054829060ff1660018111156123fc576123fc612fbf565b600181111561240d5761240d612fbf565b8152600182015460208201526002909101546001600160a01b039081166040928301529082015191925016156124895761245a612710612392836020015188612a7490919063ffffffff16565b9250821561247c57604081015161247c906001600160a01b038816908561249f565b6124868284612a8c565b91505b5095945050505050565b600061217082846133be565b6040516001600160a01b03831660248201526044810182905261250290849063a9059cbb60e01b906064015b60408051601f198184030181529190526020810180516001600160e01b03166001600160e01b031990931692909217909152612a98565b505050565b600080546001600160a01b038381166001600160a01b0319831681178455604051919092169283917f8be0079c531659141344cd1fd0a4f28419497f9722a3daafe3b4186f6b6457e09190a35050565b6001600160a01b038085166000908152600a602090815260408083208784528252918290208251606081018452815485168152600182015485169281018390526002909101549281019290925290918416146125f55760405162461bcd60e51b815260206004820152601a60248201527f4275793a20496e636f727265637420716f75746520746f6b656e000000000000604482015260640161069e565b8181604001511461263f5760405162461bcd60e51b81526020600482015260146024820152734275793a20496e636f727265637420707269636560601b604482015260640161069e565b600061264c86858561235f565b9050600061265a8483612493565b8351909150612674906001600160a01b038716908361249f565b604051632142170760e11b81526001600160a01b038816906342842e0e906126a490309033908b90600401613235565b600060405180830381600087803b1580156126be57600080fd5b505af11580156126d2573d6000803e3d6000fd5b5050506001600160a01b0388166000818152600a602090815260408083208b8452825280832080546001600160a01b031990811682556001820180549091169055600201839055928252600b90522061272c91508761233d565b508251604080518881526001600160a01b0388811660208301528183018890526060820185905291518a831693339316917f8a181b821b6fbc45fb158a5ade70964c9d58849c1ac3cd4078aa9cff7f5d2049919081900360800190a450505050505050565b6108c8846323b872dd60e01b8585856040516024016124cb93929190613235565b6000811161280e5760405162461bcd60e51b8152602060048201526024808201527f4269643a205072696365206d757374206265206772616e746572207468616e206044820152637a65726f60e01b606482015260840161069e565b6001600160a01b0384166000908152600c6020908152604080832086845282528083203384529091529020600101541561284c5761284c8484612222565b6040805180820182526001600160a01b0384811680835260208084018681528984166000818152600c84528781208b825284528781203380835290855290889020965187546001600160a01b031916961695909517865590516001909501949094558451888152908101919091528084018590529251919290917fdbd3618f64e1cad826227a83ae8ea52db3d7b6f308a388b197180168a722a3db916060908290030190a350505050565b6000612170836001600160a01b0384165b600081815260018301602052604081205461294f57508154600181810184556000848152602080822090930184905584548482528286019093526040902091909155612173565b506000612173565b60008181526001830160205260408120548015612a4057600061297b6001836133be565b855490915060009061298f906001906133be565b90508181146129f45760008660000182815481106129af576129af613377565b90600052602060002001549050808760000184815481106129d2576129d2613377565b6000918252602080832090910192909255918252600188019052604090208390555b8554869080612a0557612a05613416565b600190038181906000526020600020016000905590558560010160008681526020019081526020016000206000905560019350505050612173565b6000915050612173565b6000826000018281548110612a6157612a61613377565b9060005260206000200154905092915050565b6000612170828461342c565b6000612170828461344b565b600061217082846133d5565b6000612aed826040518060400160405280602081526020017f5361666545524332303a206c6f772d6c6576656c2063616c6c206661696c6564815250856001600160a01b0316612b6d9092919063ffffffff16565b9050805160001480612b0e575080806020019051810190612b0e91906133ed565b6125025760405162461bcd60e51b815260206004820152602a60248201527f5361666545524332303a204552433230206f7065726174696f6e20646964206e6044820152691bdd081cdd58d8d9595960b21b606482015260840161069e565b6060610965848460008585600080866001600160a01b03168587604051612b94919061346d565b60006040518083038185875af1925050503d8060008114612bd1576040519150601f19603f3d011682016040523d82523d6000602084013e612bd6565b606091505b5091509150612be787838387612bf2565b979650505050505050565b60608315612c5e578251612c57576001600160a01b0385163b612c575760405162461bcd60e51b815260206004820152601d60248201527f416464726573733a2063616c6c20746f206e6f6e2d636f6e7472616374000000604482015260640161069e565b5081610965565b6109658383815115612c735781518083602001fd5b8060405162461bcd60e51b815260040161069e9190612d19565b80356001600160a01b0381168114612ca457600080fd5b919050565b60008060008060808587031215612cbf57600080fd5b612cc885612c8d565b935060208501359250612cdd60408601612c8d565b9396929550929360600135925050565b60005b83811015612d08578181015183820152602001612cf0565b838111156108c85750506000910152565b6020815260008251806020840152612d38816040850160208701612ced565b601f01601f19169190910160400192915050565b634e487b7160e01b600052604160045260246000fd5b60008060008060808587031215612d7857600080fd5b612d8185612c8d565b9350612d8f60208601612c8d565b925060408501359150606085013567ffffffffffffffff80821115612db357600080fd5b818701915087601f830112612dc757600080fd5b813581811115612dd957612dd9612d4c565b604051601f8201601f19908116603f01168101908382118183101715612e0157612e01612d4c565b816040528281528a6020848701011115612e1a57600080fd5b82602086016020830137600060208483010152809550505050505092959194509250565b600080600060408486031215612e5357600080fd5b612e5c84612c8d565b9250602084013567ffffffffffffffff80821115612e7957600080fd5b818601915086601f830112612e8d57600080fd5b813581811115612e9c57600080fd5b8760208260051b8501011115612eb157600080fd5b6020830194508093505050509250925092565b600081518084526020808501945080840160005b83811015612f1657815180516001600160a01b0390811689528482015116848901526040908101519088015260609096019590820190600101612ed8565b509495945050505050565b604080825283519082018190526000906020906060840190828701845b82811015612f5c578151151584529284019290840190600101612f3e565b50505083810382850152612f708186612ec4565b9695505050505050565b600060208284031215612f8c57600080fd5b61217082612c8d565b60008060408385031215612fa857600080fd5b612fb183612c8d565b946020939093013593505050565b634e487b7160e01b600052602160045260246000fd5b60028110612ff357634e487b7160e01b600052602160045260246000fd5b9052565b606081016130058286612fd5565b60208201939093526001600160a01b0391909116604090910152919050565b6000806040838503121561303757600080fd5b50508035926020909101359150565b60608082528451828201819052600091906020906080850190828901855b828110156130895781516001600160a01b031684529284019290840190600101613064565b5050508481038286015286518082528783019183019060005b818110156130e25783516130b7848251612fd5565b80860151848701526040908101516001600160a01b03169084015292840192918501916001016130a2565b505080945050505050826040830152949350505050565b600080600080600060a0868803121561311157600080fd5b61311a86612c8d565b94506020860135935061312f60408701612c8d565b925061313d60608701612c8d565b949793965091946080013592915050565b60008060006060848603121561316357600080fd5b61316c84612c8d565b95602085013595506040909401359392505050565b606080825284519082018190526000906020906080840190828801845b828110156131ba5781518452928401929084019060010161319e565b505050838103828501526131ce8187612ec4565b92505050826040830152949350505050565b6000602082840312156131f257600080fd5b5035919050565b60008060006060848603121561320e57600080fd5b61321784612c8d565b92506020840135915061322c60408501612c8d565b90509250925092565b6001600160a01b039384168152919092166020820152604081019190915260600190565b60008060006060848603121561326e57600080fd5b61327784612c8d565b925061328560208501612c8d565b9150604084013590509250925092565b60208082526014908201527310dbdb9d1c9858dd081b9bdd08185b1b1bddd95960621b604082015260600190565b6020808252601a908201527f50726f787920636f6e7472616374206e6f7420616c6c6f776564000000000000604082015260600190565b60208082526022908201527f54686520636f6c6c656374696f6e2073746174757320776173206e6f74206f7060408201526132b760f11b606082015260800190565b600181811c9082168061335057607f821691505b6020821081141561337157634e487b7160e01b600052602260045260246000fd5b50919050565b634e487b7160e01b600052603260045260246000fd5b634e487b7160e01b600052601160045260246000fd5b60006000198214156133b7576133b761338d565b5060010190565b6000828210156133d0576133d061338d565b500390565b600082198211156133e8576133e861338d565b500190565b6000602082840312156133ff57600080fd5b8151801515811461340f57600080fd5b9392505050565b634e487b7160e01b600052603160045260246000fd5b60008160001904831182151516156134465761344661338d565b500290565b60008261346857634e487b7160e01b600052601260045260246000fd5b500490565b6000825161347f818460208701612ced565b919091019291505056fea2646970667358221220b03a09240c866508da7cb448b46fc398919389c2a977650121dc44e36800e75764736f6c63430008080033",
    "linkReferences": {},
    "deployedLinkReferences": {}
}